:020000040800F2
:10000000187200205D020008573400081D2E0008F9
:1000100055340008810A0008C940000800000000AB
:100020000000000000000000000000009D0100082A
:10003000410B000800000000F9010008E538000845
:1000400077020008770200087702000877020008AC
:10005000770200087702000877020008770200089C
:100060007702000877020008430B000877020008B7
:10007000770200087702000877020008770200087C
:10008000770200087702000877020008770200086C
:10009000770200087702000877020008770200085C
:1000A000770200087702000877020008770200084C
:1000B000770200087702000877020008770200083C
:1000C000770200087702000877020008770200082C
:1000D00077020008B14000087702000877020008A4
:1000E000770200087702000877020008770200080C
:1000F00077020008770200087702000877020008FC
:1001000077020008770200087702000877020008EB
:100110007702000877020008A53900087702000876
:100120007702000877020008850A000877020008B5
:1001300077020008770200087702000877020008BB
:1001400077020008770200087702000877020008AB
:100150007702000877020008910A00087702000879
:10016000770200087702000877020008770200088B
:1001700077020008770200087702000800000000FC
:100180007702000877020008DFF80CD000F0A2FB2D
:10019000004800472D4D0008187200202C4B1968AC
:1001A0000868B0E8F04F80F30988BFF36F8F4FF015
:1001B000000080F3118870470000000008480068C4
:1001C000006880F308884FF0000080F3148862B65E
:1001D00061B6BFF34F8FBFF36F8F00DF00BF00BF6B
:1001E00008ED00E0DFF80C00016841F470010160E7
:1001F000704700BF88ED00E0EFF30980BFF36F8F19
:10020000134B1A681EF0100F08BF20ED108A20E96A
:10021000F04F106009B44FF0500080F31188BFF325
:100220004F8FBFF36F8F06F0AFF84FF0000080F3F1
:10023000118809BC19680868B0E8F04F1EF0100F6B
:1002400008BFB0EC108A80F30988BFF36F8F704746
:1002500028050020EFF3058070470000064880471E
:1002600006480047FEE7FEE7FEE7FEE7FEE7FEE79B
:10027000FEE7FEE7FEE7FEE7953900088901000882
:100280002DE9F05F0546002092469B4688460646CB
:10029000814640241BE0284641464746224600F05E
:1002A00069FA53465A46C01A914110D3114618466E
:1002B000224600F050FA2D1A67EB01084F462246FD
:1002C0000120002100F047FA17EB00094E41201EE3
:1002D000A4F10104DFDC484631462A464346BDE826
:1002E000F09F40EA01039B0703D009E008C9121FF1
:1002F00008C0042AFAD203E011F8013B00F8013BE0
:10030000521EF9D27047D2B201E000F8012B491E0B
:10031000FBD270470022F6E710B513460A460446A2
:100320001946FFF7F0FF204610BD10B5044604E063
:100330000B7800F8013B03B1491C521EF8D220464D
:1003400010BD421C10F8011B0029FBD1801A704718
:1003500010B5044600E0401C0378002BFBD100E000
:10036000401C521E04D311F8013B0370002BF7D13F
:1003700000210170204610BD034611F8012B00F842
:10038000012B002AF9D11846704730B505460020E8
:10039000034600E05B1C934205D2EC5CC85C201A6B
:1003A00001D1002CF6D130BD2DE9FE4F804681EA07
:1003B0000300C00F0C46009021F0004123F00045DF
:1003C000B8EB0200A94105D24046214690461C46A2
:1003D0000B46024623F00040104347D0270DC7F3D9
:1003E0000A00C3F30A510290401A019040286BDAC8
:1003F000C3F3130040F4801B0098924620B1002301
:10040000D2EB030A63EB0B0B01985946C0F1400293
:10041000504600F0A0F906460D4650465946019A4E
:1004200000F0B8F910EB08006141002487EA11528E
:1004300084EAE7731A4340D0009A62B3019A012A12
:100440004FEA075215DC001B61EB02014FF000423E
:1004500002EA0752CDE90042001C41F58011324604
:100460002B4600F0B8F903B0BDE8F08F40462146B6
:10047000F9E7001B61EB0201001C41F58013001835
:100480005B412018A2F5001747EB030140EAD57045
:10049000B6196D4111E06D084FEA360645EAC075A0
:1004A0004FEA0752001B61EB0201001C41F580116D
:1004B00049084FEA30000019514132462B4603B03B
:1004C000BDE8F04F00F078B9009801224000002309
:1004D000D0EB020263EBE073009821464FEAE07430
:1004E000B8EB000061EB0401E9E783F000435BE750
:1004F00081F0004158E72DE9FE4F81EA030404F042
:10050000004421F0004100944FF0000B23F0004321
:1005100050EA01045ED052EA03045BD0C3F30A54EC
:10052000C1F30A552C44A4F2F3340194A0FB025405
:10053000C1F3130141F48011C3F3130343F4801397
:1005400001FB024400FB034E840A970A44EA8154EB
:1005500047EA8357A4FB076802958D0A05FB0785C8
:100560004FEA932C04FB0C542705029D4FEA0658D2
:1005700047EA1637B5EB08056EEB070C870E920EAF
:1005800047EA811742EA8312A7FB0201B6EB0B018F
:1005900064EB00042B0D43EA0C335E1844EB1C5053
:1005A000DA465146E7FB0201C5F313044FEA0B3369
:1005B00043EA14534FEA0432019C43EA0603A4F1D0
:1005C0000C040294009CCDE900B400F004F903B0DF
:1005D000BDE8F08F00200146F9E72DE9F04D81EAF2
:1005E000030404F0004B21F0004514464FF0000ACC
:1005F00023F0004150EA050220D054EA01021DD048
:10060000C5F30A570246C5F31303C1F31300C1F340
:100610000A5640F4801543F48013A7EB0608101B1C
:10062000D64608F2FD3873EB050002D308F1010845
:1006300001E092185B41B8F1000F03DA0020014697
:10064000BDE8F08D00204FF48011064684460EE090
:10065000171B73EB050705D3121B63EB050306435A
:100660004CEA010C49084FEA300092185B4150EA0D
:100670000107EDD152EA030012D082EA040083EAB6
:100680000501084305D0101BAB4106D2012200230F
:1006900006E000224FF0004302E06FF00102531029
:1006A0001AEB06004CEB085110EB0A0041EB0B0172
:1006B000BDE8F04D00F080B80EB540F23341029134
:1006C0000021CDE900110A460B4600F084F803B082
:1006D00000BDC1F30A5210B5C1F3130140F2FF335C
:1006E00041F480119A4201DA002010BD40F23343F8
:1006F0009A42A2F2334203DC524200F03BF810BDB2
:10070000904010BD00F0004230F000400AD0C10D12
:1007100001F56071C0F3160042EA0151C2084007BA
:100720001143704700200146704730B50B46014623
:1007300000202022012409E021FA02F59D4205D380
:1007400003FA02F5491B04FA02F52844151EA2F12A
:100750000102F1DC30BD202A04DB203A00FA02F16C
:10076000002070479140C2F1200320FA03F319439F
:1007700090407047202A04DB203A21FA02F0002141
:10078000704721FA02F3D040C2F1200291400843A1
:1007900019467047202A06DBCB17203A41FA02F0AF
:1007A00043EAE07306E041FA02F3D040C2F12002CE
:1007B000914008431946704710B5141E73F10004A8
:1007C00008DA401C41F1000192185B411A4301D143
:1007D00020F0010010BD2DE9F04D92469B4611B16D
:1007E000B1FA81F202E0B0FA80F220329046FFF7CF
:1007F000B2FF04460F4640EA0A0041EA0B015346A5
:100800005A46084313D0114653EA010019D0C8F1E3
:1008100040025046FFF7AEFF05460E465046594689
:100820004246FFF798FF084305D0012004E0204628
:100830003946BDE8F08D0020054346EAE0762C43BA
:1008400037430A986305E40AA0EB08000022FD0A7A
:1008500044EA47540A3002D500200146E9E7010581
:1008600010196941DDE9084500196941BDE8F04DFD
:10087000A2E7C1F30A52C1F3130140F2FF3341F47E
:1008800080119A4202DA00200146704740F2334359
:100890009A42A2F2334202DC5242FFF76BBFFFF7EB
:1008A0005ABF000030B5041E71F1000404DB4FF0A4
:1008B0000044404264EB0101141E73F1000405DBA7
:1008C0001C464FF00043524263EB0403994208BFB9
:1008D000904230BD064C074D06E0E06840F0010351
:1008E00094E8070098471034AC42F6D3FFF750FC69
:1008F000EC7B00080C7C000870B58C1810F8015BCC
:1009000015F0070301D110F8013B2A1106D110F8A8
:10091000012B03E010F8016B01F8016B5B1EF9D1AC
:100920002B0705D40023521E0DD401F8013BFAE732
:1009300010F8013BCB1A921C03E013F8015B01F89D
:10094000015B521EF9D5A142D8D3002070BD000032
:10095000464910B54A6822F440324A604A68436802
:100960001A434A6001684A6822F480724A6001684A
:100970004A68036942EA03224A6001684A6822F031
:1009800040724A6001684A6883681A434A60016895
:100990008A6822F400628A6001688A68C3681A4320
:1009A0008A60816A6FF07062D14201688A6822F0C1
:1009B00070628A6001688A680CD0836A1A438A6010
:1009C00001688A6822F040528A6001688A68C36AB6
:1009D0001A4301E022F040528A6001688A6822F0DE
:1009E00002028A6001688A68037E42EA43028A60E2
:1009F00090F82010002901684A680FD042F4006284
:100A00004A6001684A6822F460424A6001684A68A4
:100A1000174C436A04EB43331A4301E022F40062AB
:100A20004A600168CA6A22F47002CA620168CA6A2E
:100A3000838B104C04EB03531A43CA6201688A6823
:100A400022F400728A6001688A6890F8303042EAC5
:100A500043228A6001688A6822F480628A600168A1
:100A60008A68406942EA8020886010BD0023014006
:100A700000E0FFFF0000F0FF012004F07AF9FBE73F
:100A8000FEE70000014800F07BBB0000440C0020A2
:100A9000014800F075BB0000A40C00200168182379
:100AA000CAB2103AB2FBF3F2054B6FF30901032A05
:100AB0009B5CC36500D9091D81650846704700002D
:100AC0005878000810B5014600208B698A6A4FF0FB
:100AD000C07453B1B3F5005F15D072B1012A0CD0C8
:100AE000022A0AD0032A09D104E01AB1012A06D049
:100AF000022A03D1C96AC90100D5012010BDC96A03
:100B0000A142FAD010BD002AF7D0012AF2D0022A61
:100B1000F3D0032AF3D010BD30B50468256825F45E
:100B200080252560046863608368402B036803D0D8
:100B300099600068C26030BD9A600068C16030BDD5
:100B40007047102000F08EBC72B6FEE70048704778
:100B5000B068002030B500231D46136019E0401C2A
:100B60000478C4B1202CFAD110F8014F9CB1202C8C
:100B7000FAD05B1C8B420CD105461168491C1160F0
:100B800010F8011F09B12029F7D1106818B9002504
:100B900001E08B42E4D3284630BD00002DE9F05F30
:100BA000304F0646924638688B4601244FF00009C4
:100BB000B0BB07F10C0012E0006805682846FFF79B
:100BC000C0FB8046024629463046FFF7DEFB20B9CF
:100BD00016F80800202806D028B138684068386028
:100BE0000028E9D134E0D7F800C0DCF8000090F923
:100BF0000C50002D10DB00203246014603E0202B74
:100C000018D00021521C1378002BF8D109B1401ED6
:100C100040B2A84200D00024BCF1000F18D07CB133
:100C20003868324651460068836858469847040041
:100C30000BD013E00029E5D1401C40B20121E1E7CF
:100C4000524609495846FFF770FBC7F8009005E087
:100C5000524606495846FFF768FB00242046BDE887
:100C6000F09F0000A805002028790008807900087E
:100C700010B5040009D0082004F094FE01000CD047
:100C8000204604F09BFC012010BD502080F3118809
:100C9000BFF34F8FBFF36F8FFEE7502080F31188B3
:100CA000BFF34F8FBFF36F8FFEE7000070B50F4D9E
:100CB0004021284600F0CAFC0D4C216860F3000179
:100CC000216010210B4800F0C1FC216860F3410154
:100CD00021602079402100F00102284600F0BBFC91
:100CE0000649054809684088486370BD0000024015
:100CF000080400200010024010040020B40B002063
:100D000010B50021AE2002F007FD0021084602F0D8
:100D100003FD0021102002F0FFFC0021402002F022
:100D2000FBFC0021812002F0F7FC0021CF2002F023
:100D3000F3FC0021A12002F0EFFC0021C82002F00A
:100D4000EBFC0021A62002F0E7FC0021A82002F025
:100D5000E3FC00213F2002F0DFFC0021D32002F061
:100D6000DBFC0021084602F0D7FC0021D52002F070
:100D7000D3FC0021802002F0CFFC0021D92002F01A
:100D8000CBFC0021F12002F0C7FC0021DA2002F0A8
:100D9000C3FC0021122002F0BFFC0021DB2002F086
:100DA000BBFC0021402002F0B7FC0021202002F013
:100DB000B3FC0021022002F0AFFC00218D2002F0E4
:100DC000ABFC0021142002F0A7FC0021A42002F0BB
:100DD000A3FC0021A62002F09FFC0021AF2002F01E
:100DE0009BFC0021AF2002F097FC02F035FB0021B4
:100DF000BDE81040084602F06EBB000078B5002444
:100E0000009490F83C20012A19D0012280F83C205F
:100E10000A6807250368092A13D9DE680A3A02EB33
:100E200042029540AE43DE600A788B680A3A02EBD4
:100E3000420293400268D5682B43D36010E0022041
:100E400078BD1E6902EB42029540AE431E610A78EE
:100E50008B6802EB42029340026815692B431361D1
:100E60004A681F25072A13D203685E6B521E02EBE5
:100E700082029540AE435E630A8893B20A79521E9D
:100E800002EB820293400268556B2B43536327E0C9
:100E900003680D2A12D21E6BD21F02EB820295400C
:100EA000AE431E630A8893B20A79D21F02EB820214
:100EB00093400268156B2B43136311E0DE6A0D3A11
:100EC00002EB82029540AE43DE620A8893B20A7951
:100ED0000D3A02EB820293400268D56A2B43D3623B
:100EE000164B0568144A9D4206D10D68122D03D198
:100EF000556845F48005556005689D4218D10B681A
:100F0000102B01D0112B13D1536843F4000353600D
:100F1000096810290CD10A490A4A0968B1FBF2F1A3
:100F200001EB8101490000E0491E00910029FBD13D
:100F300080F83C40002078BD0023014000200140A3
:100F40002405002040420F000068C06C704770B557
:100F500004004FF0000603D0206C002510B107E01C
:100F6000012070BD204600F01DF8656484F83C50F7
:100F7000206CC00610D4206C20F4885040F0020091
:100F800020642046FFF7E4FC6564206C20F002003A
:100F900040F00100206400E0012684F83C50304617
:100FA00070BD000008B500680649884208D10648AF
:100FB000016841F480710160006800F48070009065
:100FC00008BD0000002001404438024018B500224E
:100FD000009290F83C10012907D0012180F83C10C4
:100FE00001688B68DB0702D011E0022018BD8B6816
:100FF00043F001038B602E492E4B0968B1FBF3F1DE
:1010000001EB410100E0491E00910029FBD101687C
:101010008B68DB0742D0036C40F20164A34343F4C6
:10102000807303644B685B0505D5036C23F40053A0
:1010300043F480530364036CDB0404D5436C23F056
:101040000603436400E0426480F83C201A4A6FF0D3
:1010500022030B6051680068CA06184906D088420E
:1010600024D1816811F0405F13D01FE08842F8D08E
:10107000134A904203D1D1F80423D206F1D0114A89
:10108000904213D1D1F8041301F01F011029E8D3C5
:101090000CE0816841F08041816007E0016C41F023
:1010A00010010164416C41F001014164002018BD50
:1010B0002405002040420F00002301400020014091
:1010C00000210140002201402DE9F0410446876DD6
:1010D00000F0C6FA054694F835000026022806D02E
:1010E0008020606584F834600120BDE8F0812068CC
:1010F000016821F0160101602068416921F080013A
:101100004161206C08B9A06C20B12068016821F011
:10111000080101602068016821F0010101600CE014
:1011200000F09EFA401B052807D9202060650320A7
:1011300084F8350084F83460D7E720680068C00779
:10114000EED194F85C103F208840B860012084F80C
:10115000350084F834600020C7E790F83510022984
:1011600003D08021416501207047052180F83510AA
:101170000068016821F00101016000207047000053
:101180002DE9F84304464FF00009CDF8009063487C
:101190004FF41651A56D0068B0FBF1F72E6894F876
:1011A0005C20082101FA02F030420FD0206802686A
:1011B00052070BD5026822F00402026094F85C002A
:1011C0008140A960606D40F00100606594F85C109A
:1011D0004FF0010808FA01F0304208D0216849694F
:1011E000090604D5A860606D40F00200606594F8BF
:1011F0005C1004208840304208D0216809688907C3
:1012000004D5A860606D40F00400606594F85C103F
:1012100010208840304218D021680968090714D589
:10122000A86020680168490304D50068000308D558
:10123000A16C07E00168C90503D4016821F0080129
:101240000160216C09B12046884794F85C10202089
:101250008840304231D021680968C9062DD5A86080
:1012600094F8350005282068016806D0490347D561
:10127000006800031DD4616C1CE021F016010160C0
:101280002068416921F080014161206C08B9A06C9F
:1012900020B12068016821F00801016094F85C1019
:1012A0003F208840A86084F8358084F83490216D10
:1012B0001FE0E16B09B120468847606D00282BD004
:1012C000606DC00714D0052084F8350020680168DF
:1012D00021F0010101600098401C0090B84203D841
:1012E00020680068C007F6D184F8358084F834900F
:1012F000E16C002910D001B02046BDE8F04308475A
:101300000168C905D5D4016821F01001016084F895
:10131000358084F83490CCE7BDE8F88324050020BC
:101320002DE9F041044600F09BF905465CB102202E
:1013300084F83500002684F834602068016821F0C4
:10134000010101600DE00120BDE8F08100F088F9A5
:10135000401B052805D920206065032084F835004E
:10136000F2E720680068C007F0D121680A682048C9
:101370000240D4E901031843D4E903352B43184351
:1013800063691843A3691843E3691843236A184340
:101390001043626A042A03D1D4E90B231A43104391
:1013A000086020684069656A20F0070128460D43FF
:1013B000012704280CD1A06A0543E06A40B1204609
:1013C000FFF780FB20B14020606584F83570BAE7F4
:1013D000206845612046FFF761FB94F85C203F21BF
:1013E00091408160666584F835700020ACE70000AC
:1013F0003F8010F02DE9F0410446866D90F83400EE
:10140000002501280DD0012084F8340094F83570AF
:101410000020012F07D084F8340002252846BDE8BB
:10142000F0810220FBE7022784F8357060652046D2
:10143000FFF772FB94F85C103F208840B060206892
:10144000016841F016010160206C20B1206801683C
:1014500041F0080101602068016841F0010101606C
:10146000DCE77047044910B50A68024202D0086000
:10147000FFF7F7FF10BD0000143C01402DE9F84FC5
:10148000DFF89C910022A9F1040B03274FF00F0C09
:1014900009F1040AABF1040E01250B6895402B40BD
:1014A000AB426ED10C7904F00304012C01D0022C64
:1014B00015D18668540007FA04F826EA0806D1F820
:1014C0000C8008FA04F848EA0608C0F80880446866
:1014D000AC430D79C5F300159540254345600C7963
:1014E000E443A40708D0C568540007FA04F6B543DE
:1014F0008E68A6402E43C6600C7904F00304022CCB
:1015000011D1D40800EB8406356A5407E40E0CFAB6
:1015100004F825EA0805D1F8108008FA04F848EA2A
:101520000508C6F820800568540007FA04F6B5439C
:101530000E7906F00306A6402E4306604C6814F4AC
:10154000403F66D0374C256845F4804525602468C7
:1015500022F0030504F480440094334C05EB0408A6
:10156000D8F808589407260F0CFA06F4A5432F4C18
:10157000A04201D1002424E02D4CA04202D101243C
:101580001FE046E02B4CA04201D1022419E02A4C76
:10159000A04201D1032414E0284CA04201D104242C
:1015A0000FE0274CA04201D105240AE0254CA042BF
:1015B00001D1062405E0244CA04201D1072400E01B
:1015C0000824B4402C43C8F80848D9F800404D46D8
:1015D0004E689C43F60200D51C432C60DAF80040AC
:1015E00055464E689C43B60200D51C432C60DBF880
:1015F00000405D464E689C43B60300D51C432C60FA
:10160000DEF8004075464E689C43F60300D51C4347
:101610002C60521C102AFFF43FAFBDE8F88F000089
:10162000083C0140443802400030014000000240C4
:101630000004024000080240000C0240001002407A
:101640000014024000180240001C024000690840DB
:1016500000D0012070470AB1816170470904FBE79F
:1016600001488068704700001805002070B504002C
:1016700025D094F83D00002520B984F83C50204640
:1016800000F050F9242084F83D002068016821F022
:10169000010101602068016841F400410160206897
:1016A000016821F40041016000F0FAFA4D4B6168D5
:1016B000994201D84C4900E04C49884201D20120AE
:1016C00070BD4B492268B0FBF1F1566826F03F0629
:1016D0000E43566062689A4206D94FF4967251439F
:1016E0004FF47A72B1FBF2F12268491C166A26F0B7
:1016F0003F06314311626168994210D84900401E8B
:10170000B0FBF1F2521CC2F30B02042A01D20420F6
:1017100022E0B0FBF1F0401CC0F30B001CE0A2681B
:10172000F2B301EBC10303EB0116431EB3FBF6F367
:101730005B1C43F480431B0549D092B301EBC1020B
:1017400002EB0111401EB0FBF1F0401CC0F30B0096
:1017500040F4804040F400402168CA694CF6FF73B1
:101760009A431043C861D4E9071001432068026816
:1017700022F0C00211430160D4E903010143206853
:10178000826848F2FF339A4311438160D4E905101F
:1017900001432068C26822F0FF021143C16001E0EA
:1017A0000EE016E02068016841F001010160256447
:1017B000202084F83D00256384F83E50002070BD51
:1017C00001EB4106431EB3FBF6F35B1CB3E70120BC
:1017D000C2E701EB4101401EB0FBF1F0401CC0F339
:1017E0000B00B7E7A086010080841E0000093D00C1
:1017F00040420F002DE9FF4F83B09A46DDE9119773
:1018000093460446DDF84080FFF72AFF054694F82A
:101810003D0020287FD11923012240492046009510
:1018200001F09DFB002876D194F83C00012872D08D
:10183000012084F83C0020680168C90703D10168D1
:1018400041F0010101602068016821F4006101603C
:10185000212084F83D00402084F83E0000262664C4
:10186000C4F82480A4F82A90608D20852C48E0627A
:10187000CDE9007553465A462046049901F0F0FA26
:1018800070B930E02A463946204601F009FC58B1CB
:10189000206C042804D12068016841F400710160C3
:1018A000012007B0BDE8F08F606A21680078086108
:1018B000626A521C6262208D401E80B22085618D5A
:1018C000491E618521684B69DB435B070BD468B116
:1018D00010780861606A401C6062208D401E20857F
:1018E000608D401E6085208D0028CBD12A46394668
:1018F000204601F009FB0028CAD154F83D0B0168CD
:1019000041F400710160202004F81E09E677667733
:101910000020C6E7FFE70220C3E700000200100036
:101920000000FFFF10B586B0044614216846FEF79C
:10193000F1FC13492068884220D112480021026836
:1019400042F002020260006800F002000590C02030
:1019500000901220CDE9010103200390042004909F
:1019600069460948FFF78AFD06481030016841F4CE
:1019700000110160006800F40010059006B010BD71
:1019800000540040303802400004024002488168A0
:101990000278114481607047180500200B4810B58B
:1019A000016841F400710160016841F480610160E7
:1019B000016841F480710160032000F09FF80F205E
:1019C00000F006F800F050F8002010BD003C024086
:1019D00030B505461F4887B00024016841F010016A
:1019E0000160006806A900F010000590684600F04C
:1019F00031F90398A8B100F053F940001649174A8D
:101A0000B0FBF1F11648491E026040F2E732C0E92E
:101A10000324C0E90114846100F0F4FC040003D045
:101A200015E000F03DF9E9E70D4800F02DFD040058
:101A30000DD1362000F034F8102D07D200222946AF
:101A4000362000F03BF80748056000E0012407B0AD
:101A5000204630BD4038024040420F000010004098
:101A6000040D00201C0500200C4882B0016841F4E0
:101A700080410160006800F4804000900748001F2A
:101A8000016841F0805101600068002200F0805040
:101A900000900F21901E02B000F010B844380240B0
:101AA000002809DB00F01F0201219140400980005D
:101AB00000F1E020C0F8001170470000F0B40E4BB8
:101AC0001B68C3F30223C3F10704042C00D90424C8
:101AD0001D1D072D01D2002300E0DB1E012606FAA2
:101AE00004F56D1E0D409D409E40761E164045EA51
:101AF0000601F0BC02F0E2BB0CED00E0064A00F08B
:101B0000070110684FF6FF03184040EA012003491F
:101B100008431060704700000CED00E00000FA057B
:101B20002DE9F0470D46040065D0DFF81491D9F88F
:101B30000000EFB200F00700A84207D289F8007059
:101B4000D9F8000000F00700A84254D120683D4EAB
:101B5000810712D5400703D5306840F4E05030606B
:101B60002078000703D5306840F46040306030686A
:101B7000A16820F0F000084330602078C0072DD025
:101B8000304960680839012812D0022813D0032890
:101B900011D00968890700292DDA316821F0030185
:101BA00001433160FFF75CFD804641F2883A0EE068
:101BB00009688903EFE709688901ECE7FFF750FD41
:101BC000A0EB0801514502D90320BDE8F087306839
:101BD000616800F00C00B0EB810FEFD1D9F8001074
:101BE000484601F00701A94207D90770006800F0D4
:101BF0000700A84201D00120E7E72078400705D57B
:101C00003068E16820F4E050084330602078000735
:101C100006D53068216920F4604040EAC100306098
:101C200000F05EF83168084AC1F30311515CC84006
:101C30000649086006480068FFF7CAFE0020C4E7AE
:101C4000003C02400838024060780008240500206B
:101C50001C0500200F2202600C4A136803F00303E6
:101C60004360136803F0F0038360136803F4E053E8
:101C7000C36012684FF4E05303EAD20202610448E1
:101C8000006800F007000860704700000838024054
:101C9000003C024001480068704700002405002015
:101CA0000448054900680968044AC1F38221515C6F
:101CB000C8407047240500200838024070780008AA
:101CC0000448054900680968044AC1F34231515C7F
:101CD000C84070472405002008380240707800088A
:101CE000154810B5006810F00C01144813D04310CB
:101CF00004290FD008290ED10F4C241F216801F0B0
:101D00003F022168490207D52068C0F38810A0FB74
:101D1000030106E0184610BD2168C1F38811A1FB3C
:101D200000010023FEF7ACFA2168C1F30141491C10
:101D30004900B0FBF1F010BD083802400024F40067
:101D40002DE9F84F040075D02078DFF838A3C007DC
:101D5000AAF1040548D00AF104000168C1F3810129
:101D6000012908D00068C0F3810002280AD1DAF8FE
:101D70000000400206D52868800335D56068002839
:101D8000E1D031E06068B0F5803F10D0B0F5A02F11
:101D9000286810D020F480302860286820F4802043
:101DA00028606068A0B1FFF75BFC06460CE028687D
:101DB00040F48030F4E740F480202860F7E7FFF734
:101DC0004FFC801B642871D828688003F7D50BE08E
:101DD000FFF746FC064604E0FFF742FC801B642840
:101DE000F1D828688003F7D42078DFF89C92800728
:101DF0004FF0000B3DD5A348001D016811F00C0FFA
:101E000008D00068C0F3810002280AD1DAF8000087
:101E1000400206D42868800715D5E068012809D15A
:101E200011E0E068B8B10120C9F80000FFF718FC24
:101E3000064605E022E1FFF713FC801B0228C2D80A
:101E400028688007F7D52868216920F0F80040EA63
:101E5000C10028600DE0C9F800B0FFF701FC06469C
:101E600004E0FFF7FDFB801B02281FD828688007CD
:101E7000F7D42078000722D5824F844861697037F3
:101E800071B101210160FFF7EBFB064604E0FFF7AB
:101E9000E7FB801B022809D838688007F7D50EE0D9
:101EA000C0F800B0FFF7DCFB064605E082E0FFF774
:101EB000D7FB801B02287DD838688007F7D42078AC
:101EC000400765D56F484FF000083C300068C000FF
:101ED0000BD46C483C30016841F0805101600068CF
:101EE0004FF0010800F080500090694F3868C0053D
:101EF0000FD4386840F480703860FFF7B1FB0646B5
:101F000004E0FFF7ADFB801B022853D83868C005FA
:101F1000F7D55C4FA0686C3701280FD005283868CA
:101F200010D020F001003860386820F004003860DC
:101F3000A068B0B1FFF794FB06460EE0386840F0A9
:101F40000100F4E740F004003860F7E7FFF788FB92
:101F5000811B41F28830814263D838688007F5D50B
:101F60000DE0FFF77DFB064606E0FFF779FB811BDE
:101F700041F28830814254D838688007F5D4B8F1EE
:101F8000000F05D03F483C30016821F080510160CE
:101F9000A069B8B33B49091D0968C1F38101022951
:101FA00046D00228584606D0C9F86000FFF758FB13
:101FB000044639E035E04F46C9F86000FFF750FBB2
:101FC000064604E0FFF74CFB801B022829D828684E
:101FD0008001F7D4D4E907010843A16A2D4A4908D2
:101FE00002EB0141626A41EA8211084394F82C1025
:101FF00040EA0161CAF8001001203866FFF730FBA3
:10200000044605E03CE0FFF72BFB001B022808D844
:1020100028688001F7D533E0FFF722FB001B022878
:1020200002D90320BDE8F88F28688001F4D427E0A6
:102030000128F7D0DAF80000E26900F4800191424B
:102040001CD1226A00F03F01914217D147F6C071BE
:10205000626A0140B1EB821F10D1A26A4FF0FF33D8
:1020600000F4403103EB5202B1EB024F06D194F879
:102070002C1000F07060B0EB016F01D00120D1E7AF
:102080000020CFE70438024000004742800E47425C
:10209000007000400000FFFF70B5040003D06079BD
:1020A000002510B105E0012070BD2571204600F02B
:1020B0000DF8022060712068016841F004010160A0
:1020C00001206071A560002070BD000008B50068A7
:1020D0000649884208D10648016841F04001016084
:1020E000006800F04000009008BD000000080650A5
:1020F0003438024070B5040009D0606A002540B150
:1021000025616561A56294F8510040B10CE00120A1
:1021100070BD6068B0F5827FF4D0E561F2E784F8C5
:102120005050204600F044F8022084F85100206806
:10213000016821F040010160A088218900F48270CB
:1021400001F404410843A18901F400610843217CA2
:1021500001F002010843217D01F001010843218BB8
:1021600001F400710843217F01F03801084394F81D
:10217000201001F080010843218D01F40051084333
:1021800021680860A069042101EA104094F8241035
:1021900001F010010843216848602068C16921F4FA
:1021A0000061C1616565012084F85100002070BDA7
:1021B00010B586B0044614216846FEF7ABF8134903
:1021C0002068884220D112480021026842F48052DF
:1021D0000260006800F4805005900D4814380268D1
:1021E00042F002020260006800F002000590382010
:1021F00000900220CDE90101032003900520049006
:1022000069460448FFF73AF906B010BD00300140B6
:1022100044380240000402402DE9FF4F81B00446DB
:1022200090F85000012500270E9E984693460128FD
:102230000FD0AA4684F850A0FFF712FA94F8511074
:1022400081466268404601290DD0B2F5827F08D1EF
:1022500003E0022005B0BDE8F08FA2680AB90429A6
:1022600001D00227C7E00299002968D0BBF1000F16
:10227000FBD0B8F1000FF8D094F85110042902D027
:10228000052184F8511000216165C4F838B0A4F824
:102290003E80A4F83C80029A2263A4F83680A4F819
:1022A00034802164616421680A68520603D40A6894
:1022B00042F040020A60E168B1F5006F616803D046
:1022C000E1B3012843D07AE009B1012838D1206B6D
:1022D00021680088C860206B801C2063E08E401E4F
:1022E000E0862DE02068816889070DD5E18E59B11F
:1022F000012D09D1216B0988C160206B801C2063EE
:10230000E08E401EE086002520688168C9070BD05A
:10231000E18F49B1C068A16B0880A06B801CA063ED
:10232000E08F401EE0870125FFF79AF9A0EB090036
:10233000B04205D3701C03D003275AE007E056E0F3
:10234000E08E0028CED1E08F0028CBD13DE0206B7D
:10235000216800780873206B401C2063E08E401ECB
:10236000E0862CE02068816889070DD5E18E59B19F
:10237000012D09D1216B09780173206B401C20636A
:10238000E08E401EE086002520688168C9070BD0DA
:10239000E18F49B1C068A16B0870A06B401CA063BD
:1023A000E08F401EE0870125FFF75AF9A0EB0900F6
:1023B000B04202D3701C02D0BEE7002EBCD0E08E2B
:1023C0000028CFD1E08F0028CCD14A4631462046A4
:1023D00001F0BCF918B10127202060650BE0A0686E
:1023E00018B92068C16880680090606D08B1012745
:1023F00001E084F851A0002084F85000384629E715
:102400007047704710B5040003D094F83D0010B138
:1024100007E0012010BD002084F83C00204600F0B9
:102420001FF8022084F83D00211D206801F0C0FA49
:10243000012084F8460084F83E0084F83F0084F8C8
:10244000400084F8410084F8420084F8430084F896
:10245000440084F8450084F83D00002010BD0000D1
:1024600008B500680649884208D10648016841F469
:1024700080710160006800F48070009008BD000069
:10248000002000404038024090F83D10012901D062
:1024900001207047022180F83D100168CA6842F0AF
:1024A0000102CA6000681149884214D0B0F1804F1F
:1024B00011D00F4988420ED00E4988420BD00E49E8
:1024C000884208D00D49884205D00D49884202D083
:1024D0000C49884204D1816801F00701062903D024
:1024E000016841F0010101600020704700000140D7
:1024F0000004004000080040000C004000040140BF
:10250000004001400018004070472DE9F0410446AA
:102510000068C66805694FF00007A90713D5B10721
:1025200011D5F91E0161012020772068806980079C
:10253000204602D0FFF7E8FF04E000F0A9F82046AB
:1025400000F03BF92777680716D5700714D5216886
:102550006FF004000861022020772068806910F481
:10256000407F204602D0FFF7CFFF04E000F090F854
:10257000204600F022F92777280715D5300713D514
:1025800021686FF008000861042020772068C06986
:102590008007204602D0FFF7B7FF04E000F078F88C
:1025A000204600F00AF92777E80616D5F00614D57C
:1025B00021686FF010000861082020772068C0694A
:1025C00010F4407F204602D0FFF79EFF04E000F0A9
:1025D0005FF8204600F0F1F82777E80708D0F00709
:1025E00006D021686FF001000861204600F04EF926
:1025F000280608D5300606D521686FF080000861EE
:102600002046FFF7FDFE680608D5700606D521684E
:102610006FF040000861204600F042F9A8060AD594
:10262000B00608D521686FF0200008612046BDE89B
:10263000F041FFF7E6BEBDE8F081000010B586B0BE
:10264000044614216846FDF765FE0E49206888425D
:1026500016D10D48016841F001010160006869462A
:1026600000F00100059080200090022001900120E0
:10267000029003200390092004900448FEF7FEFE18
:1026800006B010BD0020004030380240000002407B
:10269000704770B5044690F83C0000260D460128AE
:1026A0000FD0012084F83C006AB1042A1DD0082A0A
:1026B0002FD00C2A3FD00126002084F83C00304661
:1026C00070BD022070BD206801F0ECF920688169BE
:1026D00041F0080181612068816921F00401816174
:1026E000206881692A69114311E0206801F00AFA23
:1026F0002068816941F4006181612068816921F469
:1027000080618161206881692A6941EA02218161D1
:10271000D2E7206801F02CFA2068C16941F0080175
:10272000C1612068C16921F00401C1612068C169EB
:102730002A69114311E0206801F04EFA2068C1694E
:1027400041F40061C1612068C16921F48061C16107
:102750002068C1692A6941EA0221C161ACE710B56C
:10276000040003D094F83D0010B107E0012010BD33
:10277000002084F83C00204600F01EF8022084F877
:102780003D00211D206801F013F9012084F8460066
:1027900084F83E0084F83F0084F8400084F841004B
:1027A00084F8420084F8430084F8440084F845002B
:1027B00084F83D00002010BD7047704710B50446F6
:1027C00049B104290AD008290BD094F84100012806
:1027D0000AD0012010BD94F83E00F8E794F83F00BD
:1027E000F5E794F84000F2E70220B1B3042938D0AD
:1027F000082939D084F841000122206801F044F909
:102800001B4920681B4A884201D0904203D1436C87
:1028100043F4004343642068884213D0B0F1804FF2
:1028200010D0154988420DD0144988420AD0144965
:10283000884207D0904205D01249884202D01249FE
:10284000884204D1816801F00701062903D001689C
:1028500041F001010160002010BDFFE784F83E0057
:10286000CAE784F83F00C7E784F84000C4E70000E7
:102870000000014000040140000400400008004046
:10288000000C00400040014000180040006803496F
:10289000884201D1FFF77AB870470000001000406D
:1028A0007047704710B504460068406994F84110BD
:1028B000C0F3C010212911D180B12068143050E834
:1028C000001F21F0800140E80012002AF5D1A06B22
:1028D00008B1FEF7F9FB204601F072FA2068406962
:1028E00094F84210C0F38010222911D180B12068E1
:1028F000143050E8001F21F0400140E80012002A87
:10290000F5D1E06B08B1FEF7DFFB204601F031FAAC
:10291000002010BD704710F8411F407808437047F1
:10292000F8B5016804460868CA684B6910F00F0FD3
:102930004FF0000559D003F0010602F490773743B9
:1029400065D0C10705D0D10503D5616C41F0010107
:102950006164410705D5D90703D0616C41F00201DC
:102960006164810705D5D90703D0616C41F004018A
:102970006164010707D502F02001314303D0616C87
:1029800041F008016164616C00293AD0800604D5E9
:10299000900602D5204601F021FA20684069616C5A
:1029A000C0F38010090700D460B3204601F0E1F9BC
:1029B00020684069400621D52068143050E8001F87
:1029C00021F0400140E80012002AF5D1E06BA8B1E7
:1029D0006E490165E06BFEF7C0FB002811D0E06B8B
:1029E000016D01B0BDE8F040084783060FD593069E
:1029F0000DD52046BDE8F84001F0F0B92046FFF7BC
:102A000089FFF8BD2046FFF785FF6564F8BD266B9A
:102A10002023012E7DD1C6067BD5D60679D5086840
:102A20004868009048694FF00206400641D5E16BC6
:102A3000086840680004000CE8D0A28D8242E5D905
:102A4000E085C869B0F5807F2DD020680C3050E853
:102A5000001F21F4807140E80012002AF5D120689F
:102A6000143050E8001F21F0010140E80012002A54
:102A7000F5D12068143050E8001F21F0400140E8F3
:102A80000012002AF5D184F84230256320680C300A
:102A900050E8001F21F0100140E80012002AF5D193
:102AA000E06BFEF711FB6663A08DE18D401A81B2E9
:102AB0002AE0A08DE18D401A81B2E08D0028A5D0DA
:102AC0000029A3D020680C3050E8002F22F4907227
:102AD00040E80027002FF5D12068143050E8002F7F
:102AE00022F0010240E80027002FF5D184F842309F
:102AF000256320680C3050E8002F22F0100240E8D7
:102B00000023002BF5D166632046FFF7CAFEF8BD0F
:102B1000FFE705062BD5150629D594F84100212895
:102B2000F5D1A068B0F5805F01D12069B0B1206A0D
:102B3000411C2162216800784860E08C401E00043E
:102B4000000CE084E3D12068C16821F08001C160FD
:102B50002068C16841F04001C160D8E7206A008860
:102B6000C0F308004860206A801C2062E5E7400648
:102B7000CDD55006CBD5CA68204622F04002CA60A7
:102B800084F8413000F048F9C1E70000293C000812
:102B900070B5040004D094F84100002510B106E09F
:102BA000012070BD84F84050204600F023F8242016
:102BB00084F841002068C16821F40051C1602046BA
:102BC00001F06EF92068016921F4904101612068EB
:102BD000416921F02A0141612068C16841F4005136
:102BE000C1606564202084F8410084F84200656378
:102BF000002070BD2DE9F04186B0044614216846DE
:102C0000FDF788FB30492068884259D12F480025BC
:102C1000016841F010010160006800F010000590AB
:102C20002A481438016841F00101016000686946D2
:102C300000F0010005904FF4C06000900220CDE943
:102C4000010503200390072004902148FEF716FC9D
:102C5000214E20484FF000673060C6E901754FF4FF
:102C60008068C6E903587561B561F5613562304623
:102C70007562FEF755FB08B1FDF766FFE663B463C6
:102C8000154E144860367830E6E802074020A6E882
:102C90002101114846F814596030B561F56135627B
:102CA0007562FEF73DFB08B1FDF74EFFA6630022FB
:102CB00008212520B463FEF701FF2520FEF7F0FE72
:102CC00006B0BDE8F0810000001001404438024029
:102CD0000000024040640240440C002090F8423062
:102CE000202B01D00220704721B11AB100230363C9
:102CF00001F05CB901207047704770472DE9F84337
:102D0000044690F841001F4615460E46202802D082
:102D10000220BDE8F8838EB185B1002060642120D7
:102D200084F84100FEF79CFCA5848146E584A068F8
:102D30004FF02008B0F5805F02D003E00120E8E703
:102D4000206910B1354600260EE000250CE08021F8
:102D5000204601F075F9A0B9BDB115F8010B216845
:102D60004860E08C401EE084E08C4B464FF000024F
:102D700000970028EBD14FF04001204601F060F9A8
:102D800040B184F841800320C3E736F8020BC0F35A
:102D90000800E4E784F841800020BAE737B504462C
:102DA00090F84100202801D002203EBD019951B386
:102DB0004AB32162A284E28400206064212384F863
:102DC0004130A56B114BEB63A56B114B2B64A56BCD
:102DD000104BEB64A36B186520681346A56B021DAE
:102DE0002846FEF707FB21686FF040000860206866
:102DF000143050E8001F41F0800140E80012002A22
:102E0000F5D100203EBD01203EBD0000273D000859
:102E1000693D0008393C000870477047034C0022A8
:102E200040212046FEF717FCF9E7000000000240B1
:102E300001684A69D24352050FD46FF480624A6137
:102E4000002140F8301F202242738173026942F052
:102E500004020261017301207047002070470000E6
:102E60002DE9F843044600680D46DDE9089701683E
:102E70009846164641F4807101604B4600224FF09F
:102E800001112046009700F06AF848B120680068F8
:102E9000C00502D54FF4007020640320BDE8F8831C
:102EA000216805F0FE0008613B464A461549204668
:102EB00000F099F888B920684169806900903A4625
:102EC0004946204600F0ECF848B1206C042804D1B3
:102ED0002068016841F4007101600120DEE7F5B26D
:102EE000B8F1010F09D02168300A08613A46494615
:102EF000204600F0D5F80028E7D1206805610020C1
:102F0000CCE700000200010070B516460D460446ED
:102F10001EE02046FFF78CFF08B1012070BD681C41
:102F200016D0FEF79DFB801BA84200D885B920680B
:102F30004069C04340070BD5002044F8300F2021E2
:102F40006173A073216941F0200121612073E4E7DE
:102F500020684069C0434007DBD4002070BD2DE9E4
:102F6000F0471E4690460D460446C1F30747DDF87C
:102F7000209026E0701C24D0FEF772FBA0EB090025
:102F8000B04200D8EEB92068012F16D0806925EA3A
:102F900000000004000C12D00020404511D1002098
:102FA00044F8300F20216173A073216941F02001A2
:102FB000216120730120BDE8F0874069E7E7012027
:102FC000EBE72068012F0AD0806925EA00000004A1
:102FD000000C06D000204045CCD00020EBE7406933
:102FE000F3E70120F7E72DE9F047984616460D462E
:102FF00004464FF000094FF0200AC1F3074723E0D1
:1030000020684069C043400515D42068016841F438
:103010000071016021686FF480604861C4F83090ED
:1030200084F83DA084F83E90216C41F004012164B5
:1030300084F83C9020E0701C06D0FEF711FBA0EB5A
:103040000800B04203D816B1012F1ED020E020683E
:10305000012F14D0806925EA00000004000C17D06D
:1030600044F8309F84F80DA084F80E90216941F057
:103070002001216184F80C900120BDE8F0874069AF
:1030800025EA00000004000CEAD12068406901E054
:103090002068806925EA00000004000CB0D1ECE74C
:1030A00070B516460D4604461EE02046FFF7C0FEEA
:1030B00008B1012070BD681C16D0FEF7D1FA801B44
:1030C000A84200D885B920684069C04300060BD5E6
:1030D000002044F8300F20216173A073216941F072
:1030E000200121612073E4E720684069C0430006A5
:1030F000DBD4002070BD0000064D074CFDF7D6FD67
:103100002879400702D501F063FDA080012001F07D
:1031100030FEF3E710000020100400207FB50024EB
:1031200016480094019402941349039401604FF4EB
:103130008031C0E901140461047680F82040104910
:10314000C0E90A140125C561C46080F830404561BA
:10315000FDF7FDFE08B1FDF7F7FC1020CDE90005F5
:10316000694602940548FDF749FE08B1FDF7ECFCFD
:103170000248FDF72BFF7FBD00200140B00A002070
:103180000100000F0D4808B5016841F4800101609D
:103190000068002200F48000009008213A20FEF729
:1031A0008DFC3A20FEF77CFC002208214620FEF729
:1031B00085FCBDE808404620FEF772BC303802406E
:1031C00010B5FDF79DFD00F0BBFA02F029FF0121CB
:1031D000880203F015F90E4A00210E4801F004FEA2
:1031E0000D4C0B4A0021206024320C4801F0FCFDFC
:1031F000074A606048320021094801F0F5FD044AA1
:10320000A0606C320021074801F0EEFDE06010BDC7
:10321000D87100087138000800000020790A000801
:1032200049360008F9300008F0B587B01421684627
:10323000FDF770F830480025016841F01001016089
:10324000016801F010010591016841F08001016001
:10325000016801F080010591016841F00101016000
:10326000016801F001010591016841F0020101606E
:103270000068224E00F002000590002240213046F6
:10328000FEF7E9F91E4F012211463846FEF7E3F931
:10329000102000904FF404100124CDE90104694688
:1032A0001848FEF7EBF84020CDE9000469463046A7
:1032B000CDE90245FEF7E2F80094694638460194EC
:1032C000CDE90245FEF7DAF84FF4604000900220A5
:1032D000CDE9010503200390052004906946384696
:1032E000FEF7CCF800220E210A20FEF7E7FB0A20A9
:1032F000FEF7D6FB07B0F0BD3038024000000240B8
:1033000000040240001002400D4810B50B49016056
:103310000C49416000214FF480428160C0E90312F2
:1033200041618161C1610162FEF7A0F9002803D00B
:10333000BDE81040FDF708BC10BD0000005400407F
:10334000F80A0020801A0600074910B505480860F1
:103350000846FEF7A1FE002803D0BDE81040FDF7A7
:10336000F3BB10BD000806504C0B0020104810B5F0
:103370000E4901604FF48271416000210222816098
:10338000C0E9031201224261520282612822C0E98F
:103390000721416281620A21C162FEF7ABFE00286B
:1033A00003D0BDE81040FDF7CFBB10BD0030014099
:1033B0005C0B002010B588B01C216846FCF7AAFF02
:1033C00015481449002401605321C0E901144FF449
:1033D0007A71C0E903148461FFF714F808B1FDF7AE
:1033E000B3FB0D48FFF7BBF908B1FDF7ADFB60205B
:1033F000CDE90004022002900022694604940648A8
:10340000FFF747F908B1FDF79FFB0348FFF716F9EF
:1034100008B010BD00200040B40B00200C4810B5CF
:103420000A4901604FF4E1314160002181600C22C2
:10343000C160C0E904128161C161FFF7A9FB0028E6
:1034400003D0BDE81040FDF77FBB10BD0010014068
:10345000FC0B0020FEE7FEE770B5002505F1B0008B
:10346000C0B2002100F058F90021084600F054F9DC
:103470000021102000F050F900240121002000F06C
:103480004BF9641CE4B2802CF7D36D1CEDB2082D0F
:10349000E4D370BD2DE9F0471F4690460E468246A4
:1034A0000025DDF8209012E03146504600F013F878
:1034B000544608E019F805006D1CADB2012100F07A
:1034C0002BF9641CE4B24445F4D3761CF6B2BE4238
:1034D000EAD3BDE8F08710B50446B031C8B2002188
:1034E00000F01AF9102040EA1410002100F014F93D
:1034F00004F00F00BDE8104040F00100002100F092
:103500000BB900002DE9F04115460E460746FFF7BE
:10351000E2FF0F48002400EB85150121285D00F033
:10352000FBF8641CE4B2202CF7D3761CF1B23846C9
:10353000FFF7D1FF00242819012190F8200000F0A6
:10354000EBF8641CE4B2202CF5D3BDE8F081000058
:10355000160400202DE9F041203A00240F46804651
:10356000D5B27F2803D900208F1C8046FFB2394690
:10357000FFF7B1FF0E4E04EB05100121305C00F0A7
:10358000CBF8641CE4B2082CF5D37F1CF9B240469A
:10359000FFF7A1FF002404EB051030440121007A5D
:1035A00000F0BAF8641CE4B2082CF4D3BDE8F08152
:1035B000687200082DE9F0478046002708981D46EC
:1035C00091468A463C46460821E0281B401EC1B26F
:1035D0000A2001F0C6FBB9FBF0F00A21B0FBF1F2C2
:1035E00001FB120027B9691E8C4201DA30B10127B4
:1035F0003030C2B206FB0480C0B203E006FB048098
:10360000C0B220225146FFF7A5FF641CE4B2AC42D1
:10361000DBD3BDE8F0872DE9F04117460E4604469E
:1036200000250CE031462046FFF794FF0834E4B251
:10363000782C02D90024B61CF6B26D1CEDB27A5D6E
:10364000002AEFD1BDE8F0812DED028B86B04FF45A
:1036500097679FED2D8AFFF7FFFE1024FCEEC88AC6
:103660004FF41675294E4FF4FA78FFF7F5FE08234C
:103670003A46022100200094FFF79CFF18EE100A42
:10368000FDF740F841EC100B21A153EC102B01A8E1
:1036900000F0EAFD002101AA0846FFF7BCFF002167
:1036A000082318EE902A08460094FFF783FF284667
:1036B00001F05FFBFFF7D0FE002202211046FFF76A
:1036C00021FF012202210E20FFF71CFF02221146DA
:1036D0001C20FFF717FF032202212A20FFF712FF09
:1036E000284601F046FBFFF7B7FE002108237E22A3
:1036F00008460096FFF7CEFE404601F03AFB012057
:1037000001F037FBB1E70000C3F548401800002086
:1037100025302E326600000003B583B0012203A8D5
:10372000CDE900021346029209B1402200E00022D6
:1037300078210248FEF75EF805B000BDF80A0020C7
:1037400000210148FFF73AB8B40B0020F8B5154640
:103750000E460B46009204460122022100F02CF88E
:10376000A0B9134813490068B0FBF1F04FF47A7127
:10377000484300906068B0F5827F0DD13346002247
:1037800080212046009500F017F870B1606D40F080
:10379000200060650320F8BD009830B1401E009005
:1037A00020688068C0430006F6D50020F8BD000000
:1037B0002405002000366E012DE9F8431E4691468F
:1037C00088460446089DFDF74BFF401B351AFDF760
:1037D00047FF074625480068C0F3CB30684338E010
:1037E000701C37D0FDF73CFFC01BA84203D215B1B7
:1037F000009860B32CE02068416821F0E00141604E
:103800006068B0F5827F0BD1A068B0F5004F02D0A0
:10381000B0F5806F04D12068016821F0400101609B
:10382000A06AB0F5005F09D12068016821F4005159
:1038300001602068016841F400510160012084F8B2
:103840005100002084F850000320BDE8F8830025D3
:10385000401E00902068816838EA010004D00020F2
:103860004845BDD10020F0E70120F9E724050020FC
:1038700000F02CFC28B912480188426811A001F020
:103880003DFA154E154D164C01274FF000083079C2
:10389000000610D5288820B1012808D0022808D0B9
:1038A00009E0207940F30000401C606003E067609D
:1038B00001E0C4F80480012001F05BFAE7E70000B2
:1038C000CC0F0020464C41534820494E49542025F6
:1038D000580925640D0A0000100000201004002083
:1038E0000804002010B54FF0E020006903F07EFAD4
:1038F000012803D0BDE8104002F064BE10BD0000F6
:1039000030B593B030216846FCF704FD14210CA8B3
:10391000FCF700FD1D480025016841F08051016061
:10392000006800F0805011901948016841F480410E
:1039300001600068022400F480401190012003908F
:103940000820009406940490CDE90750A820CDE902
:10395000090407200B906846FEF7F2F908B172B629
:10396000FEE70CA90F2081E831004FF4A0500F9022
:103970004FF48050109005210CA8FEF7D1F80028D4
:1039800001D072B6FEE713B030BD000040380240EF
:10399000007000400248016841F470010160704706
:1039A00088ED00E00148FEF7B0BD0000040D0020E6
:1039B000F0B50268294D2A4E2A4FDFF8ACC02B4BD8
:1039C0004FF0804EA84209D0704507D0B04205D0D4
:1039D000B84203D0604501D0984203D122F0700470
:1039E0004A682243A8421BD0704519D0B04217D074
:1039F000B84215D0604513D0984211D01C4CA0425B
:103A00000ED01C4CA0420BD01B4CA04208D01B4C2B
:103A1000A04205D01A4CA04202D01A4CA04203D1B9
:103A200022F44074CA6822434C6922F08002224387
:103A300002608A68C2620A688262A84201D0984223
:103A400001D109690163012141610169C90703D0FD
:103A5000016921F001010161F0BD00000000014099
:103A60000004004000080040000C00400004014039
:103A7000004001400044014000480140001800405F
:103A8000001C00400020004010B501F01F01012380
:103A9000046A8B409C430462036A8A4013430362B6
:103AA00010BD0000F0B5026A036A23F0010303624F
:103AB00043688469114E24F073050C68104F2C4341
:103AC00022F002058A682A43B04201D0B84205D1EB
:103AD00022F00805CA682A4322F00402B04201D04D
:103AE000B84205D14D6923F440731D438B692B43C4
:103AF00043608461496841630262F0BD0000014097
:103B000000040140F0B5026A036A23F01003036267
:103B1000436884690D6824F4E64444EA05248D680A
:103B200022F0200242EA05120F4D104EA84201D0A9
:103B3000B04206D1CF6822F0800242EA071222F09A
:103B40004002A84201D0B04207D14D6923F440633E
:103B500043EA85038D6943EA8503436084614968CC
:103B600081630262F0BD00000000014000040140DA
:103B7000F0B5026A036A23F4807303624368C46980
:103B800022F4007224F073050C68124E2C438D68E9
:103B900042EA05220E4DA84201D0B04206D1CF68BC
:103BA00022F4006242EA072222F48062A84201D095
:103BB000B04207D14D6923F4405343EA05138D69A0
:103BC00043EA05134360C4614968C1630262F0BD02
:103BD000000001400004014030B5036A026A22F48B
:103BE000805202624268C4690D6824F4E64444EAE3
:103BF00005248D6823F4005343EA0533084DA84299
:103C000002D0084DA84204D14D6922F4804242EA14
:103C100085124260C46149680164036230BD0000DE
:103C2000000001400004014010B5806B0021C185F7
:103C3000C184FEF76FFE10BD70B5846B20684069CB
:103C400094F84110C0F3C0100025212904D118B107
:103C5000E584204600F0B4F82068406994F84210EA
:103C6000C0F38010222904D118B1E585204600F068
:103C700080F8606C40F0100060642046FEF74AFE59
:103C800070BD10B50146806B096809684FF00003EC
:103C9000C9052ED4C38501680C3151E8002F22F4E8
:103CA000807241E80024002CF5D10168143151E8FC
:103CB000002F22F0010241E80024002CF5D1016818
:103CC000143151E8002F22F0400241E80024002C7A
:103CD000F5D1202180F84210016B012909D101683A
:103CE0000C3151E8002F22F0100241E80024002C92
:103CF000F5D14363016B012902D0FEF7FDFF10BD32
:103D0000818DFEF7CEFD10BD10B5806B01214163A2
:103D1000016B012902D0FEF7F0FF10BD818D49082B
:103D2000FEF7BFFD10BD10B50146806B096809683C
:103D3000C90516D40021C1840168143151E8002F4F
:103D400022F0800241E80023002BF5D101680C31FC
:103D500051E8002F42F0400241E80023002BF5D14A
:103D600010BDFFF759F810BD10B5806BFFF755F87F
:103D700010BD01680C3151E8002F22F4907241E827
:103D80000023002BF5D10168143151E8002F22F0F7
:103D9000010241E80023002BF5D1016B012909D173
:103DA00001680C3151E8002F22F0100241E8002395
:103DB000002BF5D1202180F84210002101637047CB
:103DC00001680C3151E8002F22F0C00241E80023C5
:103DD000002BF5D1202180F84110704708B590F8EC
:103DE0004210222901D0022008BD81684FF480537F
:103DF000994201D1026922B1826A99421BD049B12C
:103E00000AE00268816A5268C2F308020A80816A85
:103E1000891C08E0016971B10168496801F07F01FE
:103E20001170816A491C8162C18D491E0904090C07
:103E3000C18503D01BE001684968F1E70168CA68E1
:103E400022F02002CA600168CA6822F48072CA6047
:103E500001684A6922F001024A61202180F842107B
:103E600000214163026B012A03D0FEF745FF0020C9
:103E700008BD016301680C3151E8002F22F01002E7
:103E800041E80023002BF5D101680A68D20602D56B
:103E90000A6849680091818DFEF703FDE7E700009D
:103EA00070B5044600680169E26821F4405111438D
:103EB0000161A1682069E26901436069104301431F
:103EC0002068C26849F20C639A430A43C2602068C2
:103ED0004169A26921F4407111434161314920686F
:103EE000884202D03049884202D1FDF7E9FE01E064
:103EF000FDF7D6FEE2690023192164253226B2F5CA
:103F0000004F626828D0A0FB0101930F9200FCF7DC
:103F1000B7F90146B0FBF5F06FF01802504301EB22
:103F2000800006EB0010B0FBF5F000F0F002B1FBF2
:103F3000F5F002EB0012B1FBF5F06FF018035843F7
:103F400001EB800006EB0010B0FBF5F000F00F0075
:103F500021681044886070BDA0FB010192185B418C
:103F6000FCF78EF90146B0FBF5F00201B1FBF5F06C
:103F70006FF01803584301EB800006EBC000B0FB64
:103F8000F5F000F0F80002EB4002B1FBF5F0584309
:103F900001EB800006EBC000B0FBF5F000F007007D
:103FA000D6E70000001001400014014037B582B090
:103FB0001346039A826204468385002060642221AE
:103FC00084F84210E56B1B49E963E56B1A492964E3
:103FD000E56B1A49E964E16B08652168E06B091D2E
:103FE000FDF708FA2068016840680090206948B130
:103FF00020680C3050E8001F41F4807140E8001246
:10400000002AF5D12068143050E8001F41F001016A
:1040100040E80012002AF5D12068143050E8001F53
:1040200041F0400140E80012002AF5D105B000201F
:1040300030BD0000833C0008093D0008393C000801
:104040002DE9F8431F4690460D460446089E23E09E
:10405000701C21D0FDF704FBC01BB0421AD8CEB1B2
:104060002068C168490717D5802D15D0402D13D081
:104070000168C94309070FD4016800254068009012
:104080002046FFF776FE0820606484F84050012047
:10409000BDE8F8830320FBE72068006835EA0000EC
:1040A00004D000204045D3D00020F1E70120F9E7FB
:1040B00010B50448FEF734FCBDE81040014802F09A
:1040C000C1B90000FC0B0020FEE7000010B5104C49
:1040D000002201212046FDF7BEFA00F0AFF80122D0
:1040E00011462046FDF7B7FA00F042F8094C20804F
:1040F00000F012F8606004F1080000F061F8218817
:104100004FF46F40884301D04FF0FF3010BD0000E6
:1041100000040240CC0F0020F8B50024134E2246C4
:10412000012130460094FDF796FA5A2000F070F80D
:10413000002000F06DF8002000F06AF8842000F004
:1041400067F8002000F064F86D46FF2000F060F88A
:104150002855641C042CF8D3012211463046FDF783
:104160007AFA0098401CC008F8BD00000004024024
:1041700070B5124E0024224601213046FDF76BFA3D
:10418000902000F045F8002000F042F8002000F0F8
:104190003FF8002000F03CF8FF2000F039F844EA36
:1041A0000025FF2000F034F840EA05040122114602
:1041B0003046FDF750FA204670BD00000004024072
:1041C00070B5124E05460024224601213046FDF707
:1041D00042FA4B2000F01CF8002000F019F80020F3
:1041E00000F016F8002000F013F8002000F010F89E
:1041F000FF2000F00DF82855641C082CF8DB304631
:10420000BDE8704001221146FDF725BA00040240C6
:1042100001B582B000208DF80400642000900123D5
:1042200001AA02A90448FDF7F7FF10B1FF208DF89D
:1042300004009DF804000EBD5C0B002010B5094C75
:10424000002201212046FDF706FAAB20FFF7E0FF30
:10425000012211462046FDF7FEF9BDE8104003207B
:1042600000F004BD000402400FB4084B10B504A9CF
:1042700002AA039800F004F9044602A9002000F005
:10428000A1FC204610BC5DF814FB0000C54B0008E3
:104290007CB5044600201D46164600290BD0491E59
:1042A000CDE90041044B6A462946304600F0E8F863
:1042B000009A002111707CBDAF4B00080907090E60
:1042C000002804DB00F1E02080F80014704700F0C3
:1042D0000F0000F1E02080F8141D704702E008C8CC
:1042E000121F08C1002AFAD170477047002001E070
:1042F00001C1121F002AFBD1704700002DE9FF5FAA
:1043000082B00021DDE90430020DDDF840B0034346
:1043100018D044F61050A2F2FF32424315141198FF
:1043200001281FD0A5EB0B00401C5FEA000A4FF0EC
:1043300000064E4FDFF83891B046504615D5CAF109
:10434000000413E0119801244AA3012801D16FEA67
:104350000B010298119AC0E90031C0E9024206B08F
:10436000BDE8F09FCBF10000DFE704460021404AA2
:10437000491842EB0450CDE9001012E0E00707D0E5
:1043800032463B4640464946FCF7B5F880468946EA
:1043900032463B4610461946FCF7ADF806460F4636
:1043A0006410002CEAD1DDE90401DDE90023BAF153
:1043B000000F06DAFCF79FF842464B46FCF79BF8E5
:1043C00005E0FCF70AF942464B46FCF706F90446BD
:1043D0000E460022284BFCF765FA03D84FF0FF3059
:1043E000014607E00022254B20463146FBF7DCFF63
:1043F000FCF73FFA102409E0002C0ADB0A22002314
:10440000FBF73EFF039B30321A55641E50EA01024F
:10441000F2D1641C039AC4F111031444119A012AC5
:1044200003D0012208430DD10AE0084304D0002044
:104430004FF0110B119072E7A3EB0B056D1E0DE011
:104440005B4504DD4FF0000205F1010504E003DAED
:104450004FF00002A5F10105002AECD00298119955
:10446000C0E90231C0E9004579E7000000001440CE
:104470000000F03F300000000000F0430000E03F8B
:104480002DE9FF4F95B09B468946064600250FE271
:10449000252877D100242746F84A0121059400E019
:1044A000044316F8013F203B01FA03F01042F7D114
:1044B00030782A2811D06FF02F033078A0F1300225
:1044C000092A16D8059A44F0020402EB820203EB93
:1044D00042021044761C0590EFE759F8042B059230
:1044E000002A03DA504244F40054059044F00204D8
:1044F000761C30782E2816D116F8010F44F00404EB
:104500002A280DD06FF02F023078A0F13003092B4C
:1045100009D807EB870302EB4303C718761CF3E7C0
:1045200059F8047B761C30786C280FD006DC4C28B8
:1045300017D068280DD06A2814D104E0742810D050
:104540007A280FD10DE044F400140AE044F48014FA
:1045500001E044F440147278824202D104F58014E0
:10456000761C761C307866280BD013DC582877D060
:1045700009DC002875D04528F6D04628F4D0472815
:104580001AD19DE118E0632835D0642879D06528D8
:1045900012D195E1702873D008DC6728F1D0692822
:1045A0006FD06E280DD06F2806D1B5E073282CD0BF
:1045B000752875D0782874D05A46179990476D1C85
:1045C00075E1C4F30250022809D003280DD0D9F8B0
:1045D000001004280DD00D6009F1040967E1D9F835
:1045E0000010EA17C1E90052F6E7D9F800100D8073
:1045F000F2E70D70F0E719F8041B8DF800100020A9
:104600008DF80100EA46012003E059F804AB4FF0B1
:10461000FF3061074FF0000102D40DE008F1010105
:104620008846B9420FDA8045F8DB1AF808100029ED
:10463000F4D108E008F1010188468142FADB1AF85A
:1046400008100029F6D105985B46A0EB0807214623
:104650003846179A00F094FA284400EB080507E062
:104660004DE029E10DE01AF8010B5A4617999047E1
:10467000B8F10108F7D25B4621463846179A13E194
:1046800042E00A220092C4F302524FF0000A022ACA
:1046900008D059F804CB032A4FEAEC710AD00DE098
:1046A00029E02AE009F1070121F00702F2E802C13E
:1046B000914609E00FFA8CFC4FEAEC71042A03D111
:1046C0004FFA8CFC4FEAEC71002907DA0A46002108
:1046D000DCF1000C61EB02012D2202E0220504D581
:1046E0002B228DF80420012203E0E20701D02022D2
:1046F000F7E7904659E00A2102E010220DE0102170
:104700004FF0000A00910BE010224FF0000A44F035
:1047100004040827009203E008224FF0000A0092E8
:10472000C4F30252022A05D059F804CB0021032A0F
:1047300008D009E009F1070121F00702F2E802C1FF
:10474000914605E01FFA8CFC042A01D10CF0FF0C05
:104750004FF00008220728D5702806D0009B83F070
:10476000100353EA0A0305D00EE040228DF804201E
:10477000012208E05CEA010206D030228DF8042014
:104780008DF8050002229046009B83F0080353EA4F
:104790000A030AD15CEA010201D1620705D5302281
:1047A0008DF804204FF001087F1E582804D034A053
:1047B00003900EA802900DE036A0F9E7534660463C
:1047C000009AFBF75DFD84460398825C0298401EC8
:1047D000029002705CEA0100F0D1029806A9081A62
:1047E00000F1200A600702D524F4803400E001279C
:1047F000574502DDA7EB0A0000E0002000EB0A01AC
:10480000009005984144401A0590E00306D45B46A9
:104810002146179A059800F0B3F90544002706E0F1
:1048200001A85A46C05D179990476D1C7F1C4745EB
:10483000F6DBE0030CD55B462146179A059800F09D
:104840009FF9054404E030205A46179990476D1CA3
:104850000099481E00900029F5DC08E002980299B2
:104860005A460078491C0291179990476D1CBAF17D
:104870000001AAF1010AF1DC65E10000092801004C
:1048800030313233343536373839616263646566C6
:104890000000000030313233343536373839414288
:1048A000434445460000000000F058F90544761CDA
:1048B000307800287FF4ECAD19B02846BDE8F08FC1
:1048C000620700D4062709F1070222F0070CFCE872
:1048D0000223E14603F000485FEA080C02D00FF221
:1048E000702C0DE05FEA045C02D50FF2682C07E043
:1048F0005FEAC47C02D00FF2602C01E0AFF2700CD2
:104900004FF0FF3823F00043CDF850C065280CD09D
:1049100006DC452809D046281DD047283DD13DE07A
:10492000662818D067287ED138E00021112F01DBDE
:10493000112000E0781CCDE9000106A90EA8FFF7C0
:10494000DDFCDDE90F010E9A03910021009207F1D1
:10495000010A04914DE04FF000400097CDE90110AD
:1049600006A90EA8FFF7CAFCDDE90F0203920E9B11
:1049700011990022DDF80CA00093049211B9791C62
:1049800000EB010AB7EB0A0004D4C0F1FF3007F1D5
:10499000010A0490AAEB0700019044E0012F00DA1D
:1049A00001270021112F01DD112000E03846CDE95B
:1049B000000106A90EA8FFF7A1FCDDE90F010E9A80
:1049C0000391002104910092BA4621070CD4039967
:1049D000514500DA8A46BAF1010F05DD009AAAF1C5
:1049E0000101515C302908D0B84202DA10F1040FFD
:1049F00006DA0121CDE9011015E0AAF10101E9E78C
:104A0000002805DC049901440491AAEB000102E0AE
:104A1000411C514500DD8A460499401A401C019012
:104A20004FF000400290200704D40198504501DB6C
:104A3000CDF8048000208DF84F0002980DF14F074B
:104A4000B0F1004F25D02B200E9002984FF00208B5
:104A500000280CDA404202902D200E9007E00A2137
:104A60000298FBF762FE3031029007F8011DB8F1A1
:104A70000001A8F10108F2DC02980028EFD1791EAC
:104A80000E980870307800F0200040F0450007F8DC
:104A9000020D12A8C01B00F107081498007800B19D
:104AA000012000EB0A01019801EBE07105984144F7
:104AB000401A401E0590E00306D45B462146179A33
:104AC000059800F05DF805441498007818B15A462E
:104AD000179990476D1CE00324D55B462146179A31
:104AE000059800F04DF805441CE00498002807DB09
:104AF000DDE90301884203DD0098405C179901E07D
:104B0000179930205A469047049805F10105401C3A
:104B100004900198401E019004D12E205A46179906
:104B200090476D1CBAF10001AAF1010ADDDC05E035
:104B300017F8010B5A46179990476D1CB8F1000100
:104B4000A8F10108F4DC5B462146179A0598ABE60C
:104B50002D0000002B000000200000002DE9F04196
:104B6000044600251E461746880404D405E039464D
:104B70002020B0476D1C641EF9D52846BDE8F081A1
:104B80002DE9F041044600251E469046C80301D594
:104B9000302700E02027880404D505E04146384648
:104BA000B0476D1C641EF9D52846BDE8F0814A68FF
:104BB000002A06D00A68531C0B6010704868401E1B
:104BC000486070470A68531C0B6010707047000003
:104BD00010B51948FCF7B8F904461748FCF7F6F980
:104BE0002046FBF769FD9FED151B53EC112BFBF7DE
:104BF00082FC9FED141B53EC112BFBF77CFC9FED0B
:104C0000131B53EC112BFBF770FC9FED121B53ECA5
:104C1000112BFBF7E2FC9FED111B53EC112BFBF763
:104C2000C3FB9FED101B53EC112BFBF764FCFBF750
:104C300050FD80B210BD0000B00A002066666666B6
:104C400066660A40000000000000303F52B81E8532
:104C5000EB51E83F7B14AE47E17A643F000000006F
:104C600000003940000000000000594010B5044623
:104C7000FDF710F80349B0FBF1F06043401EFDD290
:104C800010BD00000024F4002DE9F041040006D01E
:104C9000184E306884420AD10020BDE8F0815020CF
:104CA00080F31188BFF34F8FBFF36F8FFEE701F0E2
:104CB000E1F86569776BB66B01F0FCF8BD4201D095
:104CC000B54201D10220E8E70B48854208D1A06A2D
:104CD0000028F7D194F858000128F3D00320DCE72E
:104CE00005481438854202D00DB10120D5E70420D3
:104CF000D3E7000028050020CC2400200FB4802139
:104D000010B50848FBF706FB03AB80210548029A63
:104D1000FFF7BEFA82B203490348FEF73FF810BC22
:104D20005DF814FB306D0020FC0B0020FCF736FE14
:104D3000FEF7E6FDFEF778FAFEF724FAFEF76EFBC3
:104D4000FEF738FBFEF7E0FAFEF7E8F9FEF7FCFAAB
:104D5000FEF70CFB00F01AF8FEF732FA00F028F824
:104D6000FEE70346012000E05843491EC9B2FBD2CA
:104D7000704710B5EFF3058111B16FF0050403E042
:104D8000002408B101F06AF9204610BDEFF3058058
:104D900010B16FF0050070470448016811B14FF081
:104DA000FF30704701210160002070477805002026
:104DB00010B5EFF3058010B16FF0050010BD084885
:104DC0000168012902D04FF0FF3010BD054A0021D3
:104DD00082F8141D0221016001F08CFA002010BD40
:104DE000780500200BE000E02DE9FF410B464FF075
:104DF0000005EFF30581039549BB40B380261821D8
:104E000000244AB3176807B13C46976907B1394691
:104E10004F1E382F02D21779FF0703D0002004B0AD
:104E2000BDE8F081576907B1BE08D2F808C0BCF1EF
:104E3000000F0DD0D5685C2D18D312693AB137B187
:104E40008DE806103246214601F0A3FF03900DE0E5
:104E5000D7685FB912694AB903AACDE90012B2B2A4
:104E6000214601F069FF012800D003950398D6E799
:104E70002DE9F041134E0F460446F5683068001DD9
:104E800000F014FF601C07D137B13168BDE8F04174
:104E90000D48091D00F0E2BF30682C44AC4244606C
:104EA000316805D2B06BBDE8F041091D00F0BEBF0E
:104EB000706B091D00F0BAFFB06A844200D2B46280
:104EC000BDE8F08128050020CC2400202DE9F04128
:104ED000054600F0CFFF2D4EB068401CB060306832
:104EE0002B4F10B1706930B32BE03560B0680128EA
:104EF00027D1002404EB840007EB800000F088FF3A
:104F0000641C382CF6D3234800F082FF214814306B
:104F100000F07EFF1F48283000F07AFF1D483C302B
:104F200000F076FF1B48503000F072FF19487063A4
:104F30001430B06305E03068E96AC06A884200D87E
:104F40003560706A401C70626864E86A3169884242
:104F500000D9306100EB800007EB8000291D00F0D4
:104F60007DFF00F0A7FF706900280CD03068E96A67
:104F7000C06A884207D208494FF080500860BFF3EA
:104F80004F8FBFF36F8FBDE8F08100002805002030
:104F90001C2000207C24002004ED00E038B500F047
:104FA00069FF104C2068C8B90F4800F031FF0E4867
:104FB000143000F02DFF0C48E060143020610A4BE3
:104FC0000020F03B009003F1500210210A2001F074
:104FD0003BFB206010B105A100F0EEFFBDE83840BA
:104FE00000F068BF64050020D0250020546D725188
:104FF0000000000030B4026C0B46002A0BD0C168E0
:105000001144C1608468A14201D30168C16030BC11
:105010001846FBF766B930BC70472DE9F041856B47
:10502000174604460026026C82B1C7B1E068FBF760
:1050300058F9E168206C091AE1602268914202D2B5
:10504000A168081AE060022F16D017E02068A8B9FE
:10505000A06801F04BFF06460020A0600EE06068EB
:10506000FBF73FF9216C606808446060A1688842E2
:1050700004D32068606001E005B16D1E6D1CA5635E
:105080003046BDE8F08110B5044690F8590058B19B
:1050900001280CD002280FD0502080F31188BFF3D4
:1050A0004F8FBFF36F8FFEE7206B00F017FF204696
:1050B000BDE8104000F012BF10BD000010484FF4D2
:1050C0007051420706D0C01D0D4920F00700411A5B
:1050D000C1F570510B4A00230144C2E900030839AD
:1050E000183A21F0070111604B600B600B1AC0E900
:1050F000001393604FF00040536050617047000010
:10510000B02C00209405002010B5094C0A46A16877
:1051100011B904F10C01A16009684968FBF705F9B0
:10512000A0684068A060002800D0012010BD0000E9
:10513000A8050020144E154DA6F29C474FF080584C
:10514000DFF84C9011E000F095FEF068C468201D77
:1051500000F0ACFDA868401EA8606868401E68604A
:1051600000F0A8FE2046FFF78EFF68680028EAD10D
:105170003868012805D9C9F80080BFF34F8FBFF305
:105180006F8F00F013FEF0E7B82400202805002000
:1051900004ED00E0002807D00021816001600B468B
:1051A0000A46C16001F0C8BA704770B51D46049C3C
:1051B00049B12260C4E90F010121204601F078FACB
:1051C00084F84C5070BD2460F4E72DE9F05F0E4682
:1051D000DDE90B941746834691009A460A9DA52265
:1051E000206BFBF790F86FF00301206B01EB870158
:1051F000084420F00707780707D0502080F3118873
:10520000BFF34F8FBFF36F8FFEE74FF0000866B11B
:1052100000202218315C82F83410315C11B1401C3E
:105220001028F6D384F8438001E084F83480382DC8
:1052300000D33725E562C4E91358201D00F0F3FDC3
:1052400004F1180000F0EFFD2461C5F1380064623C
:10525000A061C4F8548084F85880524659463846B4
:1052600000F01AFC2060B9F1000F01D0C9F800402D
:10527000BDE8F09F30B5114900E011460A6882424E
:10528000FBD34B685C18844203D1406818444860E3
:10529000084643681C18944209D1084C183C2468FD
:1052A000A24209D052681A4442600A681268026039
:1052B000814200D0086030BD0460F9E79405002009
:1052C00070B5002441600B4D0061914206D8D11A9F
:1052D0008269914206D2011D286907E09A4203D2F1
:1052E000994201D3012403E0011DE86800F09EFD0E
:1052F000204670BD6405002010B5044600F0BAFDDC
:10530000A06B20B1002400F0D5FD204610BD012483
:10531000F9E72DE9F0478146086892460C460025DA
:10532000F8B1486801F1080640684860B04201D110
:1053300040684860D0F80C80606842686260B242A1
:1053400001D151686160606805EBC50109EB81011D
:10535000C76853460122384600F0A6FE6D1C47453B
:10536000EAD12846BDE8F087F8B513460F46050098
:105370001FD0194E716821B36A461846FBF7EAFB45
:10538000040024D039462846FAF7C4FF13A1284662
:105390007268FEF769FF21462846009AFAF7D8FF9F
:1053A000022210A12846FAF7D3FF71680120491C98
:1053B00010E0502080F31188BFF34F8FBFF36F8F41
:1053C000FEE709A1FEF750FF01207060F8BD002143
:1053D000297008467160F8BDBC05002025643A209C
:1053E000000000000D0A00005468652070617261C1
:1053F0006D657465727320776572653A0D0A0000F9
:1054000030B587B03C4D6EE00198002806DADDE942
:105410000301029A90470198002864DB039C6069AD
:1054200010B1201D00F042FC05A800F0FBF8024678
:1054300001980A2857D2DFE800F00505052D334A08
:1054400005052D3394F8280040F0010084F8280069
:105450000298A169034601442046FFF731FF68B373
:10546000216A2046884794F8280040073BD5002051
:1054700000900298A169002342181946204601F0C5
:1054800079FED8B9502080F31188BFF34F8FBFF356
:105490006F8FFEE714F8280F20F00100207022E043
:1054A00094F8280040F0010084F828000298A061D8
:1054B00028B1811813462046FFF702FF13E0502061
:1054C00080F31188BFF34F8FBFF36F8FFEE794F81F
:1054D0002800810703D4204600F000FD03E020F0FF
:1054E000010084F82800002201A9286801F036FA9A
:1054F000002889D107B030BD640500202DE9FC41AA
:105500000F46054600F038FF01A800F08BF804466E
:10551000019818B101F09EFDBDE8FC81254EAFB1A8
:1055200030690068D0B30027291B3A46306800F084
:1055300055FD01F08FFD0028EED11F494FF080503E
:105540000860BFF34F8FBFF36F8FE5E7A542EBD83D
:1055500001F080FDF0682746C068C468201D00F097
:10556000A5FB94F82800410719D5A0692B464119DD
:105570003A462046FFF7A4FEA8B1002003460146A4
:1055800000902A46204601F0F5FD60B9502080F3D6
:105590001188BFF34F8FBFF36F8FFEE707E020F056
:1055A000010084F82800216A20468847B4E70127D3
:1055B000BAE700006405002004ED00E070B50C4679
:1055C00005000DD0A4B100F055FC0020C4E9005046
:1055D0000B4841684C604460BDE8704000F06ABC14
:1055E000502080F31188BFF34F8FBFF36F8FFEE71A
:1055F000502080F31188BFF34F8FBFF36F8FFEE70A
:10560000A80500200648416B096829B1416BC968AB
:10561000C9684968816270474FF0FF31FAE70000BE
:105620002805002070B5054601F0EEFB064E044645
:10563000B068844203D200F009F8012000E00020A5
:1056400028602046B46070BD64050020F8B5194E8E
:1056500020E0C068C4680568201D00F027FB216AAF
:105660002046884794F82800400713D5A0692844AD
:10567000A84206D924616060211DF06800F0D6FBC5
:1056800008E000200346014600902A46204601F02B
:1056900071FD38B1F06801680029DAD13169C6E9D5
:1056A0000310F8BD502080F31188BFF34F8FBFF374
:1056B0006F8FFEE764050020002101E0401C491CBB
:1056C0000278A52AFAD0C1F38F00704708484068D5
:1056D000401C4FF0500080F3118804D0BFF34F8F6F
:1056E000BFF36F8FFEE7BFF34F8FBFF36F8FFEE700
:1056F0009C05002070B5134D04001BD012A1FAF7D1
:105700003BFE2046FAF71DFE04440420002220211F
:1057100004F8011B401C22700D28F9DB29462046A5
:10572000FAF72AFE2846FAF70CFE204400F0FEFCA9
:10573000002070BD502080F31188BFF34F8FBFF35E
:105740006F8FFEE7D07900085461736B0000000092
:10575000F8B513460F46060022D01E4D296839B30E
:105760006A461846FBF7F6F9040027D0394630465A
:10577000FAF7D0FD18A130462A68FEF775FD2146DC
:105780003046009AFAF7E4FD022215A13046FAF7F6
:10579000DFFD2968032919D00120491C2960F8BDC3
:1057A000502080F31188BFF34F8FBFF36F8FFEE758
:1057B0000CA1FEF759FD01202860F8BD502080F3B0
:1057C0001188BFF34F8FBFF36F8FFEE700200146B4
:1057D000E4E70000BC05002025643A20000000003A
:1057E0000D0A000054686520746872656520706158
:1057F00072616D657465727320776572653A0D0A22
:1058000000000000084CE068016839B1002139B19E
:105810000020FFF773FEFFF7F3FDF4E70121F6E741
:10582000C0680068F5E700006405002008B50024A2
:10583000FBF78CF9824619214FF4E13001F0F2F9BF
:105840003A4D83462868FAF77CFD82B258462968AB
:1058500000F0F6FB364F374E4FF0FF39C8464A4648
:105860006946584601F0D2F90128F7D14FF49671F4
:10587000306801F00FF90128F0D142469DF900107F
:10588000584601F0F7F99DF900000A2815D00D28B7
:1058900013D0082843D07F2841D0A0F120015E29F1
:1058A00004D8322C02D23855641CE4B200231A46C4
:1058B0001946306800F040FFD0E7A868FAF741FDCC
:1058C00082B25846A96800F0BBFB24B918491848B1
:1058D0003231FAF751FD4FF4806842465146144880
:1058E000FBF75CF904465046FAF72BFD82B25146AD
:1058F000584600F0A5FB002CEFD10D4901F1320014
:10590000FAF73AFD32210A48FAF704FD6868FAF717
:1059100018FD82B25846696800F092FBC6E7002C79
:10592000C4D0641EE4B200203855BFE7B878000840
:10593000B06D0020CC0500202DE9F041044600F0B8
:1059400099FA94F9455004F1240609E0606A48B1D7
:10595000304601F047FB08B100F04AFC6D1E6DB205
:10596000002DF3DC4FF0FF3684F8456000F0A2FA1A
:1059700000F080FA94F9445004F1100709E020691E
:1059800048B1384601F02EFB08B100F031FC6D1E25
:105990006DB2002DF3DC84F84460BDE8F04100F006
:1059A00089BA00002DE9F0410546002600F0E4FC2C
:1059B000324F386808B9FFF781FB786905424ED14C
:1059C000C5B3083568070ED005F00700C0F1080020
:1059D0000544680707D0502080F31188BFF34F8F2C
:1059E000BFF36F8FFEE72DB37868854237D8234920
:1059F00018310846046801E0214604466068A84260
:105A000002D220680028F7D13868844227D00E6877
:105A10002068086060680836411B10290FD960199A
:105A2000420708D0502080F31188BFF34F8FBFF397
:105A30006F8FFEE713E041606560FFF71BFC616854
:105A40007868401A7860BA68904200D2B860786985
:105A500001430020C4E90001F868401CF86001F02F
:105A6000F9FA700707D0502080F31188BFF34F8FE9
:105A7000BFF36F8FFEE73046BDE8F0817C05002064
:105A80000449086818B10868026D521C026508686C
:105A9000704700002805002010B5031F4FF08074E8
:105AA0001C601B1F21F001011960191F044B0B60C2
:105AB00014390A60091F6FF0020244380A6010BDF1
:105AC000CD56000810B54A6822F0020242F00102E9
:105AD0004A604288521C93B200224380042B01D2B8
