:020000040800F2
:10000000885601205D020008F734000841300008DE
:10001000F5340008910A0008593E0008000000006D
:100020000000000000000000000000009D0100082A
:100030005D0B000800000000F9010008853600088B
:1000400077020008770200087702000877020008AC
:10005000770200087702000877020008770200089C
:1000600077020008770200085F0B0008770200089B
:10007000770200087702000877020008770200087C
:10008000770200087702000877020008770200086C
:10009000770200087702000877020008770200085C
:1000A000770200087702000877020008770200084C
:1000B000770200087702000877020008770200083C
:1000C000770200087702000877020008770200082C
:1000D00077020008413E0008770200087702000816
:1000E000770200087702000877020008770200080C
:1000F00077020008770200087702000877020008FC
:1001000077020008770200087702000877020008EB
:1001100077020008770200084537000877020008D8
:10012000950A000877020008A10A00087702000873
:1001300077020008770200087702000877020008BB
:1001400077020008770200087702000877020008AB
:100150007702000877020008AD0A0008770200085D
:10016000770200087702000877020008770200088B
:1001700077020008770200087702000800000000FC
:100180007702000877020008DFF80CD000F0AAFB25
:1001900000480047053E0208885601202C4B19688C
:1001A0000868B0E8F04F80F30988BFF36F8F4FF015
:1001B000000080F3118870470000000008480068C4
:1001C000006880F308884FF0000080F3148862B65E
:1001D00061B6BFF34F8FBFF36F8F00DF00BF00BF6B
:1001E00008ED00E0DFF80C00016841F470010160E7
:1001F000704700BF88ED00E0EFF30980BFF36F8F19
:10020000134B1A681EF0100F08BF20ED108A20E96A
:10021000F04F106009B44FF0500080F31188BFF325
:100220004F8FBFF36F8F29F0E1FE4FF0000080F396
:10023000118809BC19680868B0E8F04F1EF0100F6B
:1002400008BFB0EC108A80F30988BFF36F8F704746
:1002500040000020EFF3058070470000064880470B
:1002600006480047FEE7FEE7FEE7FEE7FEE7FEE79B
:10027000FEE7FEE7FEE7FEE73537000889010008E4
:100280002DE9F05F0546002092469B4688460646CB
:10029000814640241BE0284641464746224600F05E
:1002A00072FA53465A46C01A914110D31146184665
:1002B000224600F059FA2D1A67EB01084F462246F4
:1002C0000120002100F050FA17EB00094E41201EDA
:1002D000A4F10104DFDC484631462A464346BDE826
:1002E000F09F10B5431A934209D28318881803E08F
:1002F00010F8011D03F8011D521EF9D210BD40EA8D
:1003000001039B0703D009E008C9121F08C0042A93
:10031000FAD203E011F8013B00F8013B521EF9D27A
:1003200010BDD2B201E000F8012B491EFBD270478C
:100330000022F6E710B513460A4604461946FFF7B1
:10034000F0FF204610BD10B5044604E00B7800F81D
:10035000013B03B1491C521EF8D2204610BD421C7D
:1003600010F8011B0029FBD1801A704710B500223C
:1003700000E0521C835C8C5CA34201D1002BF8D1BD
:10038000D8B2E1B2401A10BD10B5044600E0401CDE
:100390000378002BFBD100E0401C521E04D311F85F
:1003A000013B0370002BF7D100210170204610BDE6
:1003B000034611F8012B00F8012B002AF9D1184649
:1003C000704730B505460020034600E05B1C9342B1
:1003D00005D2EC5CC85C201A01D1002CF6D130BDEE
:1003E0002DE9FE4F804681EA0300C00F0C460090C5
:1003F00021F0004123F00045B8EB0200A94105D2ED
:100400004046214690461C460B46024623F00040DB
:10041000104347D0270DC7F30A00C3F30A510290D7
:10042000401A019040286BDAC3F3130040F4801B9C
:100430000098924620B10023D2EB030A63EB0B0B2A
:1004400001985946C0F14002504600F08DF9064629
:100450000D4650465946019A00F0A5F910EB0800E8
:100460006141002487EA115284EAE7731A4340D0BD
:10047000009A62B3019A012A4FEA075215DC001B69
:1004800061EB02014FF0004202EA0752CDE900425F
:10049000001C41F5801132462B4600F0A5F903B04F
:1004A000BDE8F08F40462146F9E7001B61EB0201F1
:1004B000001C41F5801300185B412018A2F50017BD
:1004C00047EB030140EAD570B6196D4111E06D08A4
:1004D0004FEA360645EAC0754FEA0752001B61EB4A
:1004E0000201001C41F5801149084FEA3000001953
:1004F000514132462B4603B0BDE8F04F00F065B9DC
:100500000098012240000023D0EB020263EBE0736D
:10051000009821464FEAE074B8EB000061EB04015B
:10052000E9E783F000435BE781F0004158E72DE9FC
:10053000FE4F81EA030404F0004421F000410094DE
:100540004FF0000B23F0004350EA01045ED052EA62
:1005500003045BD0C3F30A54C1F30A552C44A4F23C
:10056000F3340194A0FB0254C1F3130141F4801150
:10057000C3F3130343F4801301FB024400FB034E57
:10058000840A970A44EA815447EA8357A4FB076820
:1005900002958D0A05FB07854FEA932C04FB0C544A
:1005A0002705029D4FEA065847EA1637B5EB0805BE
:1005B0006EEB070C870E920E47EA811742EA831210
:1005C000A7FB0201B6EB0B0164EB00042B0D43EA21
:1005D0000C335E1844EB1C50DA465146E7FB02012F
:1005E000C5F313044FEA0B3343EA14534FEA0432C2
:1005F000019C43EA0603A4F10C040294009CCDE99B
:1006000000B400F0F1F803B0BDE8F08F002001461F
:10061000F9E72DE9F04D81EA030404F0004B21F0E5
:10062000004514464FF0000A23F0004150EA05024D
:1006300020D054EA01021DD0C5F30A570246C5F383
:100640001303C1F31300C1F30A5640F4801543F4B9
:100650008013A7EB0608101BD64608F2FD3873EB93
:10066000050002D308F1010801E092185B41B8F1DE
:10067000000F03DA00200146BDE8F08D00204FF4A2
:100680008011064684460EE0171B73EB050705D361
:10069000121B63EB050306434CEA010C49084FEAC1
:1006A000300092185B4150EA0107EDD152EA030095
:1006B00012D082EA040083EA0501084305D0101B2A
:1006C000AB4106D20122002306E000224FF0004396
:1006D00002E06FF0010253101AEB06004CEB0851D8
:1006E00010EB0A0041EB0B01BDE8F04D00F06DB8D6
:1006F0000EB540F2334102910021CDE900110A46C6
:100700000B4600F071F803B000BDC1F30A5210B5FA
:10071000C1F3130140F2FF3341F480119A4201DA30
:10072000002010BD40F233439A42A2F2334203DC70
:10073000524200F028F810BD904010BD30B50B4675
:10074000014600202022012409E021FA02F59D4201
:1007500005D303FA02F5491B04FA02F52844151ED5
:10076000A2F10102F1DC30BD202A04DB203A00FABC
:1007700002F1002070479140C2F1200320FA03F3F8
:10078000194390407047202A04DB203A21FA02F0F6
:100790000021704721FA02F3D040C2F120029140BB
:1007A000084319467047202A06DBCB17203A41FA46
:1007B00002F043EAE07306E041FA02F3D040C2F1EE
:1007C0002002914008431946704710B5141E73F17A
:1007D000000408DA401C41F1000192185B411A4301
:1007E00001D120F0010010BD2DE9F04D92469B464D
:1007F00011B1B1FA81F202E0B0FA80F220329046F3
:10080000FFF7B2FF04460F4640EA0A0041EA0B0137
:1008100053465A46084313D0114653EA010019D0F3
:10082000C8F140025046FFF7AEFF05460E4650465F
:1008300059464246FFF798FF084305D0012004E0DF
:1008400020463946BDE8F08D0020054346EAE076B3
:100850002C4337430A986305E40AA0EB0800002202
:10086000FD0A44EA47540A3002D500200146E9E770
:10087000010510196941DDE9084500196941BDE824
:10088000F04DA2E7C1F30A52C1F3130140F2FF3366
:1008900041F480119A4202DA00200146704740F28A
:1008A00033439A42A2F2334202DC5242FFF76BBF5B
:1008B000FFF75ABF30B5041E71F1000404DB4FF09E
:1008C0000044404264EB0101141E73F1000405DB97
:1008D0001C464FF00043524263EB0403994208BFA9
:1008E000904230BD064C074D06E0E06840F0010341
:1008F00094E8070098471034AC42F6D3FFF748FC61
:10090000F4FE020814FF020870B58C1810F8015BA1
:1009100015F0070301D110F8013B2A1106D110F898
:10092000012B03E010F8016B01F8016B5B1EF9D19C
:100930002B0705D40023521E0DD401F8013BFAE722
:1009400010F8013BCB1A921C03E013F8015B01F88D
:10095000015B521EF9D5A142D8D3002070BD000022
:10096000464910B54A6822F440324A604A684368F2
:100970001A434A6001684A6822F480724A6001683A
:100980004A68036942EA03224A6001684A6822F021
:1009900040724A6001684A6883681A434A60016885
:1009A0008A6822F400628A6001688A68C3681A4310
:1009B0008A60816A6FF07062D14201688A6822F0B1
:1009C00070628A6001688A680CD0836A1A438A6000
:1009D00001688A6822F040528A6001688A68C36AA6
:1009E0001A4301E022F040528A6001688A6822F0CE
:1009F00002028A6001688A68037E42EA43028A60D2
:100A000090F82010002901684A680FD042F4006273
:100A10004A6001684A6822F460424A6001684A6894
:100A2000174C436A04EB43331A4301E022F400629B
:100A30004A600168CA6A22F47002CA620168CA6A1E
:100A4000838B104C04EB03531A43CA6201688A6813
:100A500022F400728A6001688A6890F8303042EAB5
:100A600043228A6001688A6822F480628A60016891
:100A70008A68406942EA8020886010BD00230140F6
:100A800000E0FFFF0000F0FF012023F081FEFBE704
:100A9000FEE70000014800F07FBB00004C0800208A
:100AA000014800F079BB00009C0A0020014800F0DA
:100AB00073BB0000FC0A002001681823CAB2103A78
:100AC000B2FBF3F2054B6FF30901032A9B5CC3658C
:100AD00000D9091D816508467047000048B002082A
:100AE00010B5014600208B698A6A4FF0C07453B17B
:100AF000B3F5005F15D072B1012A0CD0022A0AD0DA
:100B0000032A09D104E01AB1012A06D0022A03D12E
:100B1000C96AC90100D5012010BDC96AA142FAD035
:100B200010BD002AF7D0012AF2D0022AF3D0032AFE
:100B3000F3D010BD30B50468256825F48025256004
:100B4000046863608368402B036803D09960006881
:100B5000C26030BD9A600068C16030BD704710202F
:100B600000F00ABD72B6FEE730B5B3F5804F05D090
:100B70006FF0704140F82210002030BD8C690B6886
:100B80008D6823434C688989240144EA0524234362
:100B900043EA014150F82230014C23401943E9E770
:100BA0000000F0CF10B50A6850F8223023F001039E
:100BB00040F822308B68082B23D000224C681C435D
:100BC000CB6813430A691C4314434A698B69144375
:100BD000CA6914430A6A14434A6A14438A6A14436A
:100BE000CA6A14430A6B1443CA6B234309681A4345
:100BF000054C50F82130A343134340F82130002026
:100C000010BD4022DAE700007FFF0F0030B5D1E9C8
:100C1000003443EA04138C688D89240244EA0544B5
:100C200023430C8A094D00EB820005EB0454234357
:100C30000C7D6D0105EB0464896923430B43416816
:100C400001F040410B434360002030BD0000F0FF45
:100C500000487047F856002030B500231D46136049
:100C600019E0401C0478C4B1202CFAD110F8014FCF
:100C70009CB1202CFAD05B1C8B420CD1054611682C
:100C8000491C116010F8011F09B12029F7D1106823
:100C900018B9002501E08B42E4D3284630BD00009E
:100CA0002DE9F05F304F0646924638688B460124A6
:100CB0004FF00009B0BB07F10C0012E000680568B6
:100CC0002846FFF74CFB8046024629463046FFF790
:100CD00078FB20B916F80800202806D028B138681B
:100CE000406838600028E9D134E0D7F800C0DCF86B
:100CF000000090F90C50002D10DB00203246014618
:100D000003E0202B18D00021521C1378002BF8D1BF
:100D100009B1401E40B2A84200D00024BCF1000F2F
:100D200018D07CB13868324651460068836858460E
:100D3000984704000BD013E00029E5D1401C40B2D5
:100D40000121E1E7524609495846FFF7FCFAC7F886
:100D5000009005E0524606495846FFF7F4FA002491
:100D60002046BDE8F09F0000C000002060F70208A8
:100D7000B8F7020810B5040009D0082024F0D4FB0D
:100D800001000CD0204624F0DBF9012010BD5020DA
:100D900080F31188BFF34F8FBFF36F8FFEE75020B2
:100DA00080F31188BFF34F8FBFF36F8FFEE7000012
:100DB00070B5124D4021284600F0D2FC104C21683D
:100DC00060F30001216010210E4800F0C9FC216889
:100DD00060F382010C48D0F8140260F341012160F5
:100DE0002079402100F00102284600F0BEFC0849AD
:100DF000064809684088486370BD00000000024052
:100E00002000002000100240000041422800002085
:100E1000100A002078B50024009490F83C20012AA4
:100E200019D0012280F83C200A6807250368092AA6
:100E300013D9DE680A3A02EB42029540AE43DE6007
:100E40000A788B680A3A02EB420293400268D5683E
:100E50002B43D36010E0022078BD1E6902EB4202F2
:100E60009540AE431E610A788B6802EB42029340C4
:100E7000026815692B4313614A681F25072A13D29C
:100E800003685E6B521E02EB82029540AE435E63C6
:100E90000A8893B20A79521E02EB820293400268DA
:100EA000556B2B43536327E003680D2A12D21E6B48
:100EB000D21F02EB82029540AE431E630A8893B2B2
:100EC0000A79D21F02EB820293400268156B2B4312
:100ED000136311E0DE6A0D3A02EB82029540AE43E5
:100EE000DE620A8893B20A790D3A02EB82029340DD
:100EF0000268D56A2B43D362164B0568144A9D429B
:100F000006D10D68122D03D1556845F48005556052
:100F100005689D4218D10B68102B01D0112B13D1FD
:100F2000536843F400035360096810290CD10A493F
:100F30000A4A0968B1FBF2F101EB8101490000E0C6
:100F4000491E00910029FBD180F83C40002078BD6B
:100F500000230140002001403C00002040420F00DF
:100F60000068C06C704770B504004FF0000603D0F5
:100F7000206C002510B107E0012070BD204600F074
:100F80001DF8656484F83C50206CC00610D4206CB9
:100F900020F4885040F0020020642046FFF7E0FC77
:100FA0006564206C20F0020040F00100206400E045
:100FB000012684F83C50304670BD000008B500683A
:100FC0000649884208D10648016841F480710160F1
:100FD000006800F48070009008BD0000002001400F
:100FE0004438024018B50022009290F83C100129C4
:100FF00007D0012180F83C1001688B68DB0702D024
:1010000011E0022018BD8B6843F001038B602E496C
:101010002E4B0968B1FBF3F101EB410100E0491EE1
:1010200000910029FBD101688B68DB0742D0036C7B
:1010300040F20164A34343F4807303644B685B058F
:1010400005D5036C23F4005343F480530364036C0D
:10105000DB0404D5436C23F00603436400E04264E0
:1010600080F83C201A4A6FF022030B605168006838
:10107000CA06184906D0884224D1816811F0405F21
:1010800013D01FE08842F8D0134A904203D1D1F820
:101090000423D206F1D0114A904213D1D1F804139F
:1010A00001F01F011029E8D30CE0816841F0804174
:1010B000816007E0016C41F010010164416C41F076
:1010C00001014164002018BD3C00002040420F0097
:1010D0000023014000200140002101400022014086
:1010E0002DE9F0410446876D00F044FB054694F875
:1010F00035000026022806D08020606584F8346020
:101100000120BDE8F0812068016821F0160101602E
:101110002068416921F080014161206C08B9A06C10
:1011200020B12068016821F0080101602068016891
:1011300021F0010101600CE000F01CFB401B0528C0
:1011400007D920206065032084F8350084F83460D6
:10115000D7E720680068C007EED194F85C103F2004
:101160008840B860012084F8350084F8346000209D
:10117000C7E790F83510022903D08021416501208E
:101180007047052180F835100068016821F00101E1
:1011900001600020704700002DE9F84304464FF03D
:1011A0000009CDF8009063484FF41651A56D006812
:1011B000B0FBF1F72E6894F85C20082101FA02F0E8
:1011C00030420FD02068026852070BD5026822F027
:1011D0000402026094F85C008140A960606D40F0F8
:1011E0000100606594F85C104FF0010808FA01F006
:1011F000304208D021684969090604D5A860606DAD
:1012000040F00200606594F85C1004208840304291
:1012100008D021680968890704D5A860606D40F08E
:101220000400606594F85C1010208840304218D0AB
:1012300021680968090714D5A86020680168490376
:1012400004D50068000308D5A16C07E00168C90552
:1012500003D4016821F008010160216C09B1204626
:10126000884794F85C1020208840304231D02168B3
:101270000968C9062DD5A86094F8350005282068AE
:10128000016806D0490347D5006800031DD4616C8E
:101290001CE021F0160101602068416921F0800105
:1012A0004161206C08B9A06C20B12068016821F070
:1012B0000801016094F85C103F208840A86084F821
:1012C000358084F83490216D1FE0E16B09B1204630
:1012D0008847606D00282BD0606DC00714D00520B2
:1012E00084F835002068016821F001010160009850
:1012F000401C0090B84203D820680068C007F6D1AF
:1013000084F8358084F83490E16C002910D001B065
:101310002046BDE8F04308470168C905D5D40168F7
:1013200021F01001016084F8358084F83490CCE716
:10133000BDE8F8833C0000202DE9F041044600F0B0
:1013400019FA05465CB1022084F83500002684F8BD
:1013500034602068016821F0010101600DE0012086
:10136000BDE8F08100F006FA401B052805D92020D1
:101370006065032084F83500F2E720680068C00744
:10138000F0D121680A6820480240D4E901031843DB
:10139000D4E903352B43184363691843A369184301
:1013A000E3691843236A18431043626A042A03D18D
:1013B000D4E90B231A431043086020684069656A2A
:1013C00020F0070128460D43012704280CD1A06A0C
:1013D0000543E06A40B12046FFF782FB20B1402080
:1013E000606584F83570BAE7206845612046FFF7EC
:1013F00063FB94F85C203F2191408160666584F82E
:1014000035700020ACE700003F8010F010B590F878
:1014100034400023012C07D0012480F8344090F898
:101420003540012C02D014E0022010BD062910D254
:10143000DFE801F0030507090B0DC2630AE002644F
:1014400008E0426406E0826404E0C26402E00265EF
:1014500000E00123002180F83410184610BD2DE96A
:10146000F0410446866D90F83400002501280DD027
:10147000012084F8340094F835700020012F07D043
:1014800084F8340002252846BDE8F0810220FBE7FD
:10149000022784F8357060652046FFF74BFB94F80F
:1014A0005C103F208840B0602068016841F0160160
:1014B0000160206C20B12068016841F008010160E2
:1014C0002068016841F001010160DCE770B5044665
:1014D00000F050F90546601C02D00448007804442E
:1014E00000F048F9401BA042FAD370BD3000002044
:1014F000F0B587B014216846FEF71AFF1548016859
:10150000002924D10121016013480025016841F020
:10151000010101600068022600F0010005904FF60D
:101520008070CDE9000603270C240295CDE90374F1
:1015300069460A4800F02CF84EF2B370CDE9000677
:101540000295CDE903746946054800F021F807B01B
:10155000F0BD0000180000203838024000100240A2
:10156000000C0240202804D10248016821F0020149
:101570000160704720000020044910B50A6802424B
:1015800002D00860FFF7EEFF10BD0000143C0140E0
:101590002DE9F84FDFF89C910022A9F1040B0327F5
:1015A0004FF00F0C09F1040AABF1040E01250B6892
:1015B00095402B40AB426ED10C7904F00304012C12
:1015C00001D0022C15D18668540007FA04F826EAE7
:1015D0000806D1F80C8008FA04F848EA0608C0F8B2
:1015E00008804468AC430D79C5F300159540254348
:1015F00045600C79E443A40708D0C568540007FA95
:1016000004F6B5438E68A6402E43C6600C7904F0FC
:101610000304022C11D1D40800EB8406356A540768
:10162000E40E0CFA04F825EA0805D1F8108008FA4F
:1016300004F848EA0508C6F820800568540007FA4F
:1016400004F6B5430E7906F00306A6402E43066065
:101650004C6814F4403F66D0374C256845F480450B
:101660002560246822F0030504F480440094334C80
:1016700005EB0408D8F808589407260F0CFA06F46E
:10168000A5432F4CA04201D1002424E02D4CA042C0
:1016900002D101241FE046E02B4CA04201D10224DC
:1016A00019E02A4CA04201D1032414E0284CA042A6
:1016B00001D104240FE0274CA04201D105240AE007
:1016C000254CA04201D1062405E0244CA04201D1C2
:1016D000072400E00824B4402C43C8F80848D9F88F
:1016E00000404D464E689C43F60200D51C432C60DA
:1016F000DAF8004055464E689C43B60200D51C43BC
:101700002C60DBF800405D464E689C43B60300D574
:101710001C432C60DEF8004075464E689C43F6037F
:1017200000D51C432C60521C102AFFF43FAFBDE8CB
:10173000F88F0000083C014044380240003001406E
:10174000000002400004024000080240000C024079
:10175000001002400014024000180240001C024029
:101760000069084000D0012070470AB181617047CC
:101770000904FBE701488068704700003000002042
:1017800070B5040025D094F83D00002520B984F8F8
:101790003C50204600F0B8F8242084F83D00206832
:1017A000016821F0010101602068016841F40041F5
:1017B00001602068016821F40041016000F05CFADA
:1017C0004D4B6168994201D84C4900E04C49884230
:1017D00001D2012070BD4B492268B0FBF1F156687F
:1017E00026F03F060E43566062689A4206D94FF4CF
:1017F000967251434FF47A72B1FBF2F12268491CA0
:10180000166A26F03F06314311626168994210D88A
:101810004900401EB0FBF1F2521CC2F30B02042A35
:1018200001D2042022E0B0FBF1F0401CC0F30B0019
:101830001CE0A268F2B301EBC10303EB0116431EE7
:10184000B3FBF6F35B1C43F480431B0549D092B312
:1018500001EBC10202EB0111401EB0FBF1F0401C94
:10186000C0F30B0040F4804040F400402168CA6996
:101870004CF6FF739A431043C861D4E90710014343
:101880002068026822F0C00211430160D4E903011C
:1018900001432068826848F2FF339A431143816014
:1018A000D4E9051001432068C26822F0FF02114309
:1018B000C16001E00EE016E02068016841F001011E
:1018C00001602564202084F83D00256384F83E50A3
:1018D000002070BD01EB4106431EB3FBF6F35B1C19
:1018E000B3E70120C2E701EB4101401EB0FBF1F07C
:1018F000401CC0F30B00B7E7A086010080841E00E7
:1019000000093D0040420F0010B586B00446142186
:101910006846FEF70DFD13492068884220D1124821
:101920000021026842F002020260006800F002003A
:101930000590C02000901220CDE901010320039002
:101940000420049069460948FFF722FE064810303B
:10195000016841F400110160006800F40010059076
:1019600006B010BD00540040303802400004024070
:10197000024881680278114481607047300000207D
:101980000B4810B5016841F400710160016841F431
:1019900080610160016841F480710160032000F002
:1019A0009FF80F2000F006F800F050F8002010BD5E
:1019B000003C024030B505461F4887B0002401684E
:1019C00041F010010160006806A900F010000590C8
:1019D000684600F031F90398A8B100F04DF94000D5
:1019E0001649174AB0FBF1F11648491E026040F251
:1019F000E732C0E90324C0E90114846100F0E6FD88
:101A0000040003D015E000F037F9E9E70D4800F0D5
:101A10001FFE04000DD1362000F034F8102D07D23F
:101A200000222946362000F03BF80748056000E018
:101A3000012407B0204630BD4038024040420F002C
:101A4000001000405C0B0020340000200C4882B0E5
:101A5000016841F480410160006800F4804000901A
:101A60000748001F016841F08051016000680022B2
:101A700000F0805000900F21901E02B000F010B8CE
:101A800044380240002809DB00F01F020121914088
:101A90004009800000F1E020C0F80011704700000C
:101AA000F0B40E4B1B68C3F30223C3F10704042CEC
:101AB00000D904241D1D072D01D2002300E0DB1EE8
:101AC000012606FA04F56D1E0D409D409E40761ECF
:101AD000164045EA0601F0BC02F09ABA0CED00E0AF
:101AE000064A00F0070110684FF6FF03184040EA6D
:101AF0000120034908431060704700000CED00E02E
:101B00000000FA052DE9F0470D46040065D0DFF826
:101B10001491D9F80000EFB200F00700A84207D2F4
:101B200089F80070D9F8000000F00700A84254D1ED
:101B300020683D4E810712D5400703D5306840F438
:101B4000E05030602078000703D5306840F46040F2
:101B500030603068A16820F0F000084330602078E1
:101B6000C0072DD0304960680839012812D00228FA
:101B700013D0032811D00968890700292DDA3168AC
:101B800021F0030101433160FFF7F4FD804641F28B
:101B9000883A0EE009688903EFE709688901ECE7F4
:101BA000FFF7E8FDA0EB0801514502D90320BDE88D
:101BB000F0873068616800F00C00B0EB810FEFD166
:101BC000D9F80010484601F00701A94207D907706B
:101BD000006800F00700A84201D00120E7E7207864
:101BE000400705D53068E16820F4E05008433060D4
:101BF0002078000706D53068216920F4604040EA6B
:101C0000C100306000F058F83168084AC1F3031190
:101C1000515CC8400649086006480068FFF7CAFEE4
:101C20000020C4E7003C02400838024050B00208DF
:101C30003C000020340000200F2202600C4A136890
:101C400003F003034360136803F0F0038360136839
:101C500003F4E053C36012684FF4E05303EAD20286
:101C600002610448006800F0070008607047000047
:101C700008380240003C02400448054900680968F1
:101C8000044AC1F38221515CC84070473C000020E7
:101C90000838024060B00208044805490068096835
:101CA000044AC1F34231515CC84070473C000020F7
:101CB0000838024060B00208154810B5006810F0FE
:101CC0000C01144813D0431004290FD008290ED159
:101CD0000F4C241F216801F03F022168490207D5FB
:101CE0002068C0F38810A0FB030106E0184610BD71
:101CF0002168C1F38811A1FB00010023FEF7C0FA9F
:101D00002168C1F30141491C4900B0FBF1F010BD4D
:101D1000083802400024F4002DE9F84F040075D083
:101D20002078DFF838A3C007AAF1040548D00AF1EB
:101D300004000168C1F38101012908D00068C0F3E3
:101D4000810002280AD1DAF80000400206D528688E
:101D5000800335D560680028E1D031E06068B0F5D7
:101D6000803F10D0B0F5A02F286810D020F480302C
:101D70002860286820F4802028606068A0B1FFF700
:101D8000F9FC06460CE0286840F48030F4E740F4A3
:101D900080202860F7E7FFF7EDFC801B642871D8EE
:101DA00028688003F7D50BE0FFF7E4FC064604E063
:101DB000FFF7E0FC801B6428F1D828688003F7D483
:101DC0002078DFF89C9280074FF0000B3DD5A348A8
:101DD000001D016811F00C0F08D00068C0F38100ED
:101DE00002280AD1DAF80000400206D428688007E9
:101DF00015D5E068012809D111E0E068B8B10120EB
:101E0000C9F80000FFF7B6FC064605E022E1FFF73F
:101E1000B1FC801B0228C2D828688007F7D5286843
:101E2000216920F0F80040EAC10028600DE0C9F8FF
:101E300000B0FFF79FFC064604E0FFF79BFC801B09
:101E400002281FD828688007F7D42078000722D5F9
:101E5000824F84486169703771B101210160FFF7D9
:101E600089FC064604E0FFF785FC801B022809D8A0
:101E700038688007F7D50EE0C0F800B0FFF77AFCAD
:101E8000064605E082E0FFF775FC801B02287DD83E
:101E900038688007F7D42078400765D56F484FF041
:101EA00000083C300068C0000BD46C483C3001682E
:101EB00041F08051016000684FF0010800F080504F
:101EC0000090694F3868C0050FD4386840F48070BE
:101ED0003860FFF74FFC064604E0FFF74BFC801B21
:101EE000022853D83868C005F7D55C4FA0686C3716
:101EF00001280FD00528386810D020F00100386084
:101F0000386820F004003860A068B0B1FFF732FCF8
:101F100006460EE0386840F00100F4E740F00400A7
:101F20003860F7E7FFF726FC811B41F288308142D9
:101F300063D838688007F5D50DE0FFF71BFC06462F
:101F400006E0FFF717FC811B41F28830814254D82C
:101F500038688007F5D4B8F1000F05D03F483C3011
:101F6000016821F080510160A069B8B33B49091DA7
:101F70000968C1F38101022946D00228584606D0DB
:101F8000C9F86000FFF7F6FB044639E035E04F463C
:101F9000C9F86000FFF7EEFB064604E0FFF7EAFB36
:101FA000801B022829D828688001F7D4D4E90701CA
:101FB0000843A16A2D4A490802EB0141626A41EADD
:101FC0008211084394F82C1040EA0161CAF800100D
:101FD00001203866FFF7CEFB044605E03CE0FFF742
:101FE000C9FB001B022808D828688001F7D533E018
:101FF000FFF7C0FB001B022802D90320BDE8F88FC1
:1020000028688001F4D427E00128F7D0DAF800002E
:10201000E26900F4800191421CD1226A00F03F0184
:10202000914217D147F6C071626A0140B1EB821F3D
:1020300010D1A26A4FF0FF3300F4403103EB52029B
:10204000B1EB024F06D194F82C1000F07060B0EBA9
:10205000016F01D00120D1E70020CFE70438024012
:1020600000004742800E4742007000400000FFFF22
:1020700070B5040003D06079002510B105E001209F
:1020800070BD2571204600F00DF8022060712068B7
:10209000016841F00401016001206071A560002029
:1020A00070BD000008B500680649884208D106489E
:1020B000016841F040010160006800F040000090BC
:1020C00008BD0000000806503438024070B5040016
:1020D00009D0606A002540B125616561A56294F868
:1020E000510040B10CE0012070BD6068B0F5827F06
:1020F000F4D0E561F2E784F85050204600F044F84F
:10210000022084F851002068016821F0400101603C
:10211000A088218900F4827001F404410843A18958
:1021200001F400610843217C01F002010843217D94
:1021300001F001010843218B01F400710843217F64
:1021400001F03801084394F8201001F080010843A1
:10215000218D01F40051084321680860A069042121
:1021600001EA104094F8241001F01001084321689E
:1021700048602068C16921F40061C1616565012082
:1021800084F85100002070BDF0B587B004461421DA
:102190006846FEF7CDF81F4F216800261E4A02232D
:1021A000032405251D48B94213D11B4914310F687A
:1021B00047F480570F60096801F480510591116858
:1021C00041F002011160116801F00201059138210E
:1021D00016E0134FB9421AD10F4910310F6847F476
:1021E00080470F60096801F480410591116841F052
:1021F00002011160116801F0020105914FF4604184
:102200008DE84A006946CDE90345FFF7C1F907B0FB
:10221000F0BD0000003001403038024000040240B0
:10222000003800402DE9F84F044690F85000002691
:102230001D469046894601280ED04FF0010B84F8C8
:1022400050B0FFF797FA074694F851004146B2465E
:10225000012804D0022694E00220BDE8F88FB9F1ED
:10226000000F74D0B8F1000F71D0032084F8510032
:10227000C4F854A0C4F83090A4F83480A4F8368090
:10228000C4F838A0A4F83CA0A4F83EA0C4F844A028
:10229000C4F840A0A068B0F5004F09D120680268DA
:1022A00022F0400202602068026842F4804202602C
:1022B00020680268520603D4026842F040020260BD
:1022C000E068B0F5006F606803D028B3012923D01F
:1022D0003FE008B101291BD1206B21680088C8604C
:1022E00006E020688168890709D5216B0988C160EB
:1022F000206B801C2063E08E401EE08608E0FFF724
:1023000039FAC01BA84202D3681C01D030E075B373
:10231000E08E0028E5D11FE0206B2168007808736B
:1023200006E020688168890709D5216B0978017367
:10233000206B401C2063E08E401EE08609E0FFF722
:1023400019FAC01BA84203D3681C02D010E017E0A2
:102350006DB1E08E0028E4D13A462946204601F0CE
:10236000E5F808B120206065A06818B106E0FFE735
:10237000032606E02068C16880680090606D00B1A7
:10238000012684F851B084F850A0304665E72DE965
:10239000F84F044690F8500001250A9E1F469246C9
:1023A0008B464FF0000801280ED0012084F8500021
:1023B000FFF7E0F9814694F85100616801280CD0DC
:1023C000B1F5827F07D102E00220BDE8F88FA16855
:1023D00009B9042801D00220B6E0BBF1000F27D0D4
:1023E000BAF1000F24D01FB394F85100042802D092
:1023F000052084F8510000206065C4F838A0E78704
:10240000A787C4F830B0E786A78620646064206898
:102410000168490603D4016841F040010160E068A9
:10242000B0F5006F606805D0E8B3012F43D079E0C4
:10243000012089E008B1012F34D1206B2168008888
:10244000C860206B801C2063E08E401EE08629E07F
:102450002068816889070DD5E18E59B1012D09D118
:10246000216B0988C160206B801C2063E08E401EB8
:10247000E086002520688168C9070BD0E18F49B14B
:10248000C068A16B0880A06B801CA063E08F401E19
:10249000E0870125FFF76EF9A0EB0900B04201D3F8
:1024A000701C50D100E006E0E08E0028D0D1E08F13
:1024B0000028CDD13CE0206B216800780873206BA8
:1024C000401C2063E08E401EE0862BE0206881687F
:1024D00089070DD5E18E59B1012D09D1216B0978FC
:1024E0000173206B401C2063E08E401EE0860025B7
:1024F00020688168C9070BD0E18F49B1C068A16B22
:102500000870A06B401CA063E08F401EE08701258F
:10251000FFF730F9A0EB0900B04202D3701C01D0E4
:1025200011E086B1E08E0028D0D1E08F0028CDD117
:102530004A463146204600F0F9FF38B120204FF0DE
:102540000108606508E00320804605E0A06818B92E
:102550002068C16880680090012084F85100002044
:1025600084F85000404630E770B515460E4604002A
:1025700003D094F8490010B107E0012070BD00209D
:1025800084F84800204600F01DF804F10801206896
:10259000FEF708FB3146A2682068FEF737FBD4E956
:1025A00001022946236BFEF7DFFAA168206850F884
:1025B000212042F0010240F82120012084F8490046
:1025C000002070BDFEF794BF7047704710B504003F
:1025D00003D094F83D0010B107E0012010BD0020A9
:1025E00084F83C00204600F01FF8022084F83D00EB
:1025F000211D206801F0ACF8012084F8460084F821
:102600003E0084F83F0084F8400084F8410084F8DC
:10261000420084F8430084F8440084F8450084F8BC
:102620003D00002010BD000008B500680649884242
:1026300008D10648016841F480710160006800F427
:102640008070009008BD000000200040403802402B
:1026500090F83D10012901D001207047022180F837
:102660003D100168CA6842F00102CA600068114961
:10267000884214D0B0F1804F11D00F4988420ED05B
:102680000E4988420BD00E49884208D00D49884235
:1026900005D00D49884202D00C49884204D1816896
:1026A00001F00701062903D0016841F00101016032
:1026B0000020704700000140000400400008004076
:1026C000000C0040000401400040014000180040A0
:1026D000704770B50446006801694FF00005C943B2
:1026E000890715D4C168C943890711D4E91E01615E
:1026F00001202077206880698007204602D0FFF7FC
:10270000E7FF04E000F0C2F8204600F054F9257716
:1027100020680169C943490717D4C168C9434907FB
:1027200013D46FF0040101610220207720688069D2
:1027300010F4407F204602D0FFF7CAFF04E000F00B
:10274000A5F8204600F037F9257720680169C943CC
:10275000090716D4C168C943090712D46FF00801EC
:102760000161042020772068C0698007204602D0DC
:10277000FFF7AEFF04E000F089F8204600F01BF9F7
:10278000257720680169C943C90617D4C168C943C0
:10279000C90613D46FF0100101610820207720686A
:1027A000C06910F4407F204602D0FFF791FF04E09B
:1027B00000F06CF8204600F0FEF8257720680169EB
:1027C000C943C90708D1C168C943C90704D1891ED3
:1027D0000161204600F058F920680169C9430906E3
:1027E00009D4C168C943090605D46FF080010161AD
:1027F0002046FFF7E9FE20680169C943490609D46C
:10280000C168C943490605D46FF040010161204603
:1028100000F044F920680169C94389060BD4C168F6
:10282000C943890607D46FF0200101612046BDE845
:102830007040FFF7CABE70BD10B586B004461421C3
:102840006846FDF775FD0E492068884216D10D488F
:10285000016841F0010101600068694600F0010073
:10286000059080200090022001900120029003201A
:102870000390092004900448FEF78AFE06B010BDBC
:10288000002000403038024000000240704770B520
:10289000044690F83C0000260D4601280FD0012088
:1028A00084F83C006AB1042A1DD0082A2FD00C2AD3
:1028B0003FD00126002084F83C00304670BD022045
:1028C00070BD206800F0B6FF2068816941F0080102
:1028D00081612068816921F004018161206881693A
:1028E0002A69114311E0206800F0D4FF2068816953
:1028F00041F4006181612068816921F48061816116
:10290000206881692A6941EA02218161D2E7206851
:1029100000F0F6FF2068C16941F00801C16120683C
:10292000C16921F00401C1612068C1692A691143AC
:1029300011E0206801F018F82068C16941F40061D5
:10294000C1612068C16921F48061C1612068C169E9
:102950002A6941EA0221C161ACE710B5040003D045
:1029600094F83D0010B107E0012010BD002084F86C
:102970003C00204600F01EF8022084F83D00211D96
:10298000206800F0E5FE012084F8460084F83E004F
:1029900084F83F0084F8400084F8410084F8420045
:1029A00084F8430084F8440084F8450084F83D002E
:1029B000002010BD7047704710B5044649B1042986
:1029C0000AD008290BD094F8410001280AD0012030
:1029D00010BD94F83E00F8E794F83F00F5E794F84E
:1029E0004000F2E70220B1B3042938D0082939D0D9
:1029F00084F841000122206800F00EFF1B49206886
:102A00001B4A884201D0904203D1436C43F40043F7
:102A100043642068884213D0B0F1804F10D015492C
:102A200088420DD0144988420AD01449884207D000
:102A3000904205D01249884202D01249884204D1FE
:102A4000816801F00701062903D0016841F0010106
:102A50000160002010BDFFE784F83E00CAE784F85B
:102A60003F00C7E784F84000C4E7000000000140D1
:102A7000000401400004004000080040000C004039
:102A8000004001400018004000680349884201D11D
:102A9000FEF76EBF7047000000100040704770479F
:102AA00010B504460068406994F83D10C0F3C010AA
:102AB000212911D180B12068143050E8001F21F085
:102AC000800140E80012002AF5D1606B08B1FEF7E2
:102AD00007FB204601F038F82068406994F83E1062
:102AE000C0F38010222911D180B12068143050E841
:102AF000001F21F0400140E80012002AF5D1A06B30
:102B000008B1FEF7EDFA204600F0F7FF002010BDF7
:102B1000704710F83D1F407808437047F8B50168CA
:102B200004460868CA684B6910F00F0F4FF00005A3
:102B300059D003F0010602F49077374365D0C107FE
:102B400005D0D10503D5216C41F001012164410775
:102B500005D5D90703D0216C41F00201216481071A
:102B600005D5D90703D0216C41F004012164010788
:102B700007D502F02001314303D0216C41F0080158
:102B80002164216C00293AD0800604D5900602D534
:102B9000204600F0E7FF20684069216CC0F38010F8
:102BA000090700D460B3204600F0A7FF2068406901
:102BB000400621D52068143050E8001F21F0400164
:102BC00040E80012002AF5D1A06BA8B16C4901655C
:102BD000A06BFEF7CEFA002811D0A06B016D01B0FA
:102BE000BDE8F040084783060FD593060DD5204673
:102BF000BDE8F84000F0B6BF2046FFF789FFF8BDFA
:102C00002046FFF785FF2564F8BD266B2023012EA3
:102C100079D1C60677D5D60675D50868486800907C
:102C20004869400640D5A16B086840680004000C64
:102C3000EAD0A28D8242E7D9E085C869B0F5807FED
:102C40002DD020680C3050E8001F21F4807140E83E
:102C50000012002AF5D12068143050E8001F21F03E
:102C6000010140E80012002AF5D12068143050E834
:102C7000001F21F0400140E80012002AF5D184F83D
:102C80003E30256320680C3050E8001F21F0100111
:102C900040E80012002AF5D1A06BFEF721FAA08DC2
:102CA000E18D401A81B229E0A08DE18D401A81B2F8
:102CB000E08D0028A8D00029A6D020680C3050E86C
:102CC000002F22F4907240E80026002EF5D12068F3
:102CD000143050E8002F22F0010240E80026002EB8
:102CE000F5D184F83E30256320680C3050E8002F81
:102CF00022F0100240E80023002BF5D12046FFF718
:102D0000CEFEF8BDFFE705062BD5150629D594F8AC
:102D10003D002128F5D1A068B0F5805F01D1206980
:102D2000B0B1206A411C2162216800784860E08CC3
:102D3000401E0004000CE084E3D12068C16821F04B
:102D40008001C1602068C16841F04001C160D8E7DE
:102D5000206A0088C0F308004860206A801C206256
:102D6000E5E74006CDD55006CBD5CA68204622F00F
:102D70004002CA6084F83D3000F060F9C1E700000D
:102D8000B939000870B5040004D094F83D0000255E
:102D900010B106E0012070BD84F83C50204600F0E0
:102DA00023F8242084F83D002068C16821F40051F4
:102DB000C160204600F036FF2068016921F490418F
:102DC00001612068416921F02A0141612068C168E0
:102DD00041F40051C1602564202084F83D0084F84E
:102DE0003E00002070BD00002DE9F04186B0044691
:102DF00014216846FDF79CFA30492068884259D171
:102E00002F480025016841F010010160006800F0C2
:102E1000100005902A481438016841F00101016052
:102E20000068694600F0010005904FF4C060009012
:102E30000220CDE9010503200390072004902148DA
:102E4000FEF7A6FB214E20484FF000673060C6E930
:102E500001754FF48068C6E903587561B561F56185
:102E6000356230467562FEF767FA08B1FDF77AFE03
:102E7000A663B463154E144860367830E6E802075E
:102E80004020A6E82101114846F814596030B56188
:102E9000F56135627562FEF74FFA08B1FDF762FE23
:102EA0006663002208212520B463FEF7F9FD252082
:102EB000FEF7E8FD06B0BDE8F0810000001001401B
:102EC0004438024000000240406402409C0A002056
:102ED00090F83E30202B0ED159B152B190F83C30D1
:102EE000012B08D0012380F83C300023036300F05D
:102EF0001FBF0120704702207047704770472DE9BF
:102F0000F843044690F83D001F4615460E4620281B
:102F10004BD1C6B1BDB194F83C00012845D0012089
:102F200084F83C004FF00008C4F84080212084F869
:102F30003D00FEF71FFCA5848146E584A068B0F53E
:102F4000805F03D004E00120BDE8F883206920B150
:102F50003546002684F83C800EE00025FAE7802103
:102F6000204600F031FFA0B9ADB115F8010B216882
:102F70004860E08C401EE084E08C4B464FF000023D
:102F800000970028EBD14FF04001204600F01CFFD5
:102F900030B10320D8E736F8020BC0F30800E6E7AB
:102FA000202084F83D000020CEE70220CCE700007E
:102FB000F7B5044690F83D00202837D1019991B328
:102FC0008AB394F83C00012830D0012084F83C00FA
:102FD0002162A284E28400252564212084F83D003A
:102FE000636B1348D863636B12481864636B1248B1
:102FF000D864606B134605652668606B321DFEF76A
:103000002EFA21686FF04000086084F83C50206878
:10301000143050E8001F41F0800140E80012002AFF
:10302000F5D10020FEBDFFE70120FBE70220F9E714
:10303000AF3A0008F13A0008C939000870477047F4
:10304000034C002240212046FEF78FFBF9E70000E9
:1030500000000240064D074CFDF7AAFE2879400704
:1030600002D503F0CFFAA080012021F091FBF3E715
:1030700010000020280000207FB50024164800948E
:10308000019402941349039401604FF48031C0E924
:1030900001140461047680F820401049C0E90A1444
:1030A0000125C561C46080F830404561FDF75BFFD4
:1030B00008B1FDF757FD1020CDE9000569460294DF
:1030C0000548FDF7A7FE08B1FDF74CFD0248FDF7E6
:1030D00089FF7FBD00200140040800200100000F8F
:1030E0001F4808B50268002142F4800202600068AF
:1030F0001C4A00F4800000901B48C0E90021802297
:1031000082609200C26052000261520042619200ED
:10311000C0E906210422C0E908120322C0E90A21FD
:103120000163FEF709F908B1FDF71CFD0022082133
:103130003820FEF7B5FC3820FEF7A4FC0022082159
:103140003A20FEF7ADFC3A20FEF79CFC0022082155
:103150004620FEF7A5FCBDE808404620FEF792BCDD
:1031600030380240106402404C08002010B500F0D6
:10317000D7F926F087FD0121880226F073FF0E4A59
:1031800000210E4821F040FB0D4C0B4A002120602D
:1031900024320C4821F038FB074A60604832002195
:1031A000094821F031FB044AA0606C320021074835
:1031B00021F02AFBE06010BDB8AF02083D360008E0
:1031C00000000020890A0008F93400085530000882
:1031D00000B587B01C216846FDF7AAF815484FF0E6
:1031E0002041102201601449416000218160C160CA
:1031F000C0E904128161C16113020162C0E90913CF
:10320000C16201634163816341640F20FF23009029
:10321000CDE90103CDE903021120CDE9050100222A
:1032200069460448FFF7A0F9002801D0FDF79AFC91
:1032300007B000BDAC080020040100A0F0B587B0C5
:1032400014216846FDF774F840480025016841F0F4
:1032500010010160016801F010010591016841F061
:1032600080010160016801F080010591016841F071
:1032700001010160016801F001010591016841F05F
:1032800004010160016801F004010591016841F049
:1032900002010160016801F002010591016841F03D
:1032A0000801016000682A4E00F008000590002225
:1032B00040213046FEF759FA264F012241F2010122
:1032C0003846FEF752FA002202213846FEF74DFA40
:1032D000102000904FF404100124CDE90104694648
:1032E0001D48FEF755F94020CDE9000469463046F7
:1032F000CDE90245FEF74CF92020CDE900056946ED
:1033000002941648FEF744F9009469463846019441
:10331000CDE90245FEF73CF902260096CDE90145CC
:10332000694638460395FEF733F920038DE87100AE
:1033300069463846FEF72CF900220E210A20FEF7D6
:10334000AFFB0A20FEF79EFB07B0F0BD303802400D
:103350000000024000040240001002400008024049
:103360000D4810B50B4901600C49416000214FF434
:1033700080428160C0E9031241618161C1610162E3
:10338000FEF7FEF9002803D0BDE81040FDF7EABBC8
:1033900010BD000000540040FC080020801A060008
:1033A000074910B5054808600846FEF761FE002889
:1033B00003D0BDE81040FDF7D5BB10BD0008065096
:1033C00050090020104810B50E4901604FF4827179
:1033D0004160002102228160C0E9031201224261A2
:1033E000520282612822C0E90721416281620A21DA
:1033F000C162FEF76BFE002803D0BDE81040FDF768
:10340000B1BB10BD0030014060090020104810B56C
:103410000E4901604FF48271416000218160C160FA
:103420004FF400720161C0E905121822C0E90721BA
:10343000416281620A21C162FEF748FE002803D082
:10344000BDE81040FDF78EBB10BD00000038004005
:10345000B809002010B588B01C216846FCF768FF49
:1034600015481449002401605321C0E901144FF4A8
:103470007A71C0E903148461FFF7A8F808B1FDF779
:1034800071FB0D48FFF769FA08B1FDF76BFB60208F
:10349000CDE9000402200290002269460494064807
:1034A000FFF7F5F908B1FDF75DFB0348FFF7C4F935
:1034B00008B010BD00200040100A00200C4810B5D4
:1034C0000A4901604FF4E1314160002181600C2222
:1034D000C160C0E904128161C161FFF753FC00289B
:1034E00003D0BDE81040FDF73DBB10BD001001400A
:1034F000580A0020FEE7FEE720F046FC20F018FC0A
:10350000064C2079400701D51FF090FF012020F0E4
:103510004FFC012021F03CF9F3E7000010000020EF
:1035200000210148FFF748BA100A002038B50446C8
:103530001248134D4FF47A730068B0FBF5F058430E
:1035400000906068B0F5827F0DD10B46009200229A
:103550008021204600F016F870B1606D40F0200028
:103560006065032038BD009830B1401E009020688F
:103570008068C0430006F6D5002038BD3C0000201E
:1035800000366E012DE9F8431E46914688460446F2
:10359000089DFEF7EFF8401B351AFEF7EBF80746DB
:1035A00025480068C0F3CB30684338E0701C37D042
:1035B000FEF7E0F8C01BA84203D215B1009860B333
:1035C0002CE02068416821F0E00141606068B0F5BE
:1035D000827F0BD1A068B0F5004F02D0B0F5806FAC
:1035E00004D12068016821F040010160A06AB0F5B3
:1035F000005F09D12068016821F400510160206852
:10360000016841F400510160012084F8510000205C
:1036100084F850000320BDE8F8830025401E009088
:103620002068816838EA010004D000204845BDD1F7
:103630000020F0E70120F9E73C0000200E4E0F4D7E
:103640000F4C307900060FD5288820B101280FD003
:1036500002280FD008E06068C10702D140F00100E5
:1036600001E020F001006060012021F091F8E8E71E
:103670006068F3E76068F4E710000020280000208D
:103680002000002010B54FF0E020006927F082FAFA
:10369000012803D0BDE8104026F068BE10BD000030
:1036A00030B593B030216846FCF742FE14210CA8D7
:1036B000FCF73EFE1D480025016841F08051016085
:1036C000006800F0805011901948016841F4804171
:1036D00001600068022400F48040119001200390F2
:1036E0000820009406940490CDE90750A820CDE965
:1036F000090407200B906846FEF70EFB08B172B66E
:10370000FEE70CA90F2081E831004FF4A0500F9084
:103710004FF48050109005210CA8FEF7F3F9002813
:1037200001D072B6FEE713B030BD00004038024051
:10373000007000400248016841F470010160704768
:1037400088ED00E00148FEF7C4BF00005C0B0020DC
:10375000F0B50268254D264E264FDFF89CC0274B5A
:103760004FF0804EA84209D0704507D0B04205D036
:10377000B84203D0604501D0984203D122F07004D2
:103780004A682243A8421BD0704519D0B04217D0D6
:10379000B84215D0604513D0984211D0184CA042C1
:1037A0000ED0184CA0420BD0174CA04208D0174C9A
:1037B000A04205D0164CA04202D0164CA04203D124
:1037C00022F44074CA6822434C6922F080022243EA
:1037D00002608A68C2620A688262A84201D0984286
:1037E00001D10969016301214161F0BD000001407F
:1037F0000004004000080040000C004000040140AC
:1038000000400140004401400048014000180040D1
:10381000001C00400020004010B501F01F010123F2
:10382000046A8B409C430462036A8A401343036228
:1038300010BD0000F0B5026A22F001020262026AC5
:1038400043688469114E24F073050C68104F2C43B3
:1038500022F002058A682A43B04201D0B84205D15D
:1038600022F00805CA682A4322F00402B04201D0BF
:10387000B84205D14D6923F440731D438B692B4336
:1038800043608461496841630262F0BD0000014009
:1038900000040140F0B5026A22F010020262026ADE
:1038A000436884690D6824F4E64444EA05248D687D
:1038B00022F0200242EA05120F4D104EA84201D01C
:1038C000B04206D1CF6822F0800242EA071222F00D
:1038D0004002A84201D0B04207D14D6923F44063B1
:1038E00043EA85038D6943EA85034360846149683F
:1038F00081630262F0BD000000000140000401404D
:10390000F0B5026A22F480720262026A4368C469F6
:1039100022F4007224F073050C68124E2C438D685B
:1039200042EA05220E4DA84201D0B04206D1CF682E
:1039300022F4006242EA072222F48062A84201D007
:10394000B04207D14D6923F4405343EA05138D6912
:1039500043EA05134360C4614968C1630262F0BD74
:10396000000001400004014030B5026A22F4805298
:103970000262036A4268C4690D6824F4E64444EABA
:1039800005248D6823F4005343EA0533084DA8420B
:1039900002D0084DA84204D14D6922F4804242EA87
:1039A00085124260C46149680164036230BD000051
:1039B000000001400004014010B5806B0021C1856A
:1039C000C184FFF7A5F810BD70B5846B206840690D
:1039D00094F83D10C0F3C0100025212904D118B17E
:1039E000E584204600F0B0F82068406994F83E1065
:1039F000C0F38010222904D118B1E585204600F0DB
:103A00007CF8206C40F0100020642046FFF780F81E
:103A100070BD10B50146806B09680968C9052FD4CF
:103A20000021C18501680C3151E8002F22F4807219
:103A300041E80023002BF5D10168143151E8002F33
:103A400022F0010241E80023002BF5D10168143176
:103A500051E8002F22F0400241E80023002BF5D16D
:103A6000202180F83E10016B012909D101680C3139
:103A700051E8002F22F0100241E80023002BF5D17D
:103A8000016B012902D0FFF738FA10BD818DFFF7D5
:103A900006F810BD10B5806B016B012902D0FFF74D
:103AA0002DFA10BD818D4908FEF7F9FF10BD10B544
:103AB0000146806B09680968C90516D40021C184D4
:103AC0000168143151E8002F22F0800241E8002300
:103AD000002BF5D101680C3151E8002F42F0400273
:103AE00041E80023002BF5D110BDFFF7A7FA10BD68
:103AF00010B5806BFFF7A3FA10BD01680C3151E8D7
:103B0000002F22F4907241E80023002BF5D10168C8
:103B1000143151E8002F22F0010241E80023002B6C
:103B2000F5D1016B012909D101680C3151E8002F51
:103B300022F0100241E80023002BF5D1202180F86B
:103B40003E1000210163704701680C3151E8002FDD
:103B500022F0C00241E80023002BF5D1202180F89B
:103B60003D10704708B590F83E10222901D0022080
:103B700008BD81684FF48053994201D1026922B196
:103B8000826A99421BD049B10AE00268816A526890
:103B9000C2F308020A80816A891C08E0016971B1D8
:103BA0000168496801F07F011170816A491C8162D6
:103BB000C18D491E0904090CC18503D019E00168B3
:103BC0004968F1E70168CA6822F02002CA6001680A
:103BD000CA6822F48072CA6001684A6922F0010250
:103BE0004A61202180F83E10016B012903D0FFF7C4
:103BF00084F9002008BD0021016301680C3151E8FF
:103C0000002F22F0100241E80023002BF5D10168BB
:103C10000A68D20602D50A6849680091818DFEF7CC
:103C20003EFFE6E770B5044600680169E26821F4EA
:103C3000405111430161A1682069E2690143606953
:103C4000104301432068C26849F20C639A430A4357
:103C5000C26020684169A26921F440711143416149
:103C600031492068884202D03049884202D1FEF7AB
:103C700013F801E0FEF700F8E2690023192164253A
:103C80003226B2F5004F626828D0A0FB0101930FE5
:103C90009200FCF7F5FA0146B0FBF5F06FF0180260
:103CA000504301EB800006EB0010B0FBF5F000F094
:103CB000F002B1FBF5F002EB0012B1FBF5F06FF092
:103CC0001803584301EB800006EB0010B0FBF5F041
:103CD00000F00F0021681044886070BDA0FB010156
:103CE00092185B41FCF7CCFA0146B0FBF5F00201FB
:103CF000B1FBF5F06FF01803584301EB800006EBC1
:103D0000C000B0FBF5F000F0F80002EB4002B1FBA0
:103D1000F5F0584301EB800006EBC000B0FBF5F076
:103D200000F00700D6E70000001001400014014039
:103D300037B582B01346039A826283850025044614
:103D40000564222084F83E00A16B1C48C863A16B67
:103D50001B480864A16B1B48C864A06B05652168FB
:103D6000A06B091DFDF77BFB20680168406800908F
:103D700084F83C50206948B120680C3050E8001F9E
:103D800041F4807140E80012002AF5D12068143017
:103D900050E8001F41F0010140E80012002AF5D16F
:103DA0002068143050E8001F41F0400140E8001244
:103DB000002AF5D105B0002030BD0000133A0008FC
:103DC000953A0008C93900082DE9F0411E4617460A
:103DD00088460446069D26E0681C24D025B1FDF7E0
:103DE000C9FC801BA8421ED920680C3050E8001F77
:103DF00021F4D07140E80012002AF5D12068143077
:103E000050E8001F21F0010140E80012002AF5D11E
:103E1000202084F83D0084F83E00002084F83C0017
:103E20000320BDE8F0812068016838EA010004D071
:103E30000020B842D0D00020F3E70120F9E70000CD
:103E400010B50448FEF76AFEBDE81040014826F0B0
:103E50002BB90000580A0020FEE700002DE9F34FBF
:103E600083B025F039FE4FF4805B00225946544858
:103E7000FDF77BFC0025DFF84C912C462F462E46A3
:103E800009F11E0A00F0A4F8B0B37F1C0123FFB2B1
:103E90001A464D494D48FEF7C5F94B494FF0010808
:103EA000022301AA491C4948CDF80080FEF76FFAA9
:103EB000454901231A46491E4448FEF7B3F94249D1
:103EC000022302AA491C4148CDF80080FEF75FFAA0
:103ED000BDF8080041BA29F81610BDF8041040BA20
:103EE0004ABA2AF8162015FA80F548BA14FA80F46E
:103EF000761CF6B20F2EC5D3012259463048FDF785
:103F000034FC25F009FE0F2F03D2002005B0BDE8D8
:103F1000F08F0F20B5FBF0F1B4FBF0F01FFA80F842
:103F200000231FFA81FC18464FF4167B39F81070F5
:103F30003AF81060B7EB0C01A6EB080200D5494235
:103F4000002A00DA52421144594503DDED1BA41B3F
:103F50005B1CDBB2401CC0B20F28E7D3C3F10F00DB
:103F6000B5FBF0F1B4FBF0F089B24FF4FA6280B225
:103F7000914203D347F61812914200D9114640F2FC
:103F8000DC52904203D349F27042904200D910466D
:103F90004FF4A572A1F5FA61514347F2481291FB23
:103FA000F2F1039AA0F2DC5011804FF49B71484368
:103FB00048F6946190FBF1F0049908800120A5E790
:103FC000000402405C5C002029B50208B80900200A
:103FD00010B520210348FDF7C3FB08B1002010BD38
:103FE000012010BD000802400FB4084B10B504A911
:103FF00002AA039801F066FD044602A9002002F01F
:10400000F8F8204610BC5DF814FB0000F3610008CE
:104010000907090E002804DB00F1E02080F80014F5
:10402000704700F00F0000F1E02080F8141D704789
:1040300002E008C8121F08C1002AFAD17047704771
:10404000002001E001C1121F002AFBD1704770B5AA
:10405000044600256FF02F0608E02068411C21600F
:10406000007805EB850106EB4101451820680078D2
:1040700000F0C6F80028F0D1284670BD2DE9FF5F9A
:1040800082B00021DDE90430020DDDF840B00343C9
:1040900018D044F61050A2F2FF3242431514119882
:1040A00001281FD0A5EB0B00401C5FEA000A4FF06F
:1040B00000064E4FDFF83891B046504615D5CAF18C
:1040C000000413E0119801244AA3012801D16FEAEA
:1040D0000B010298119AC0E90031C0E9024206B012
:1040E000BDE8F09FCBF10000DFE704460021404A25
:1040F000491842EB0450CDE9001012E0E00707D068
:1041000032463B4640464946FCF711FA804689460E
:1041100032463B4610461946FCF709FA06460F465A
:104120006410002CEAD1DDE90401DDE90023BAF1D5
:10413000000F06DAFCF7FBF942464B46FCF7F7F9AD
:1041400005E0FCF766FA42464B46FCF762FA044685
:104150000E460022284BFCF7ADFB03D84FF0FF3092
:10416000014607E00022254B20463146FCF738F98E
:10417000FCF788FB102409E0002C0ADB0A2200234C
:10418000FCF77EF8039B30321A55641E50EA010298
:10419000F2D1641C039AC4F111031444119A012A48
:1041A00003D0012208430DD10AE0084304D00020C7
:1041B0004FF0110B119072E7A3EB0B056D1E0DE094
:1041C0005B4504DD4FF0000205F1010504E003DA70
:1041D0004FF00002A5F10105002AECD002981199D8
:1041E000C0E90231C0E9004579E700000000144051
:1041F0000000F03F300000000000F0430000E03F0E
:104200003038092801D8012070470020704700008D
:1042100010B54421074800F017FF00221E21064870
:104220001FF0CCF8054CA06002F0A4FB0020207029
:1042300010BD00002C5E0020296A000880020020CA
:104240002DE9F0470F46814690461146384600F06A
:104250000CF940B100224146384600F0B2F828B1CE
:104260000020BDE8F0874FF0FF30FAE7002638461F
:104270000FF03BFD401E0FFA80FA38460FF0D9FCD4
:10428000401E02B2B8F80210B7F90200091A09B2CA
:1042900000290FDD3B88012663F30F0460F31F4400
:1042A000BB88084463F30F0560F31F45C9F800405D
:1042B000C9F80450B8F906007988411A511A09B2B0
:1042C000002913DDB7F9062090420FDA3A8862F32D
:1042D0000F04BA8860F31F4462F30F05084460F3CB
:1042E0001F4509EBC600761C04604560B8F9020062
:1042F000B7F90210884200DC0846B8F90610B7F991
:104300000620914200DB1146B8F80030B7F90020D2
:10431000091A9B1A1BB209B2002B10DD00290EDD11
:1043200062F30F041A4462F30F05421862F31F454B
:1043300009EBC60260F31F4414605560761CB8F99F
:1043400004203B88D71AAAEB07031BB2002B0EDD13
:1043500062F30F0460F31F441A4462F30F0508442C
:1043600060F31F4509EBC600761C046045603046CB
:1043700077E770B5B1F90040B2F900309C4200DD3A
:1043800023460380B1F90240B2F90250AC4200DC8E
:104390002C464480B1F90450B2F90460B54200DB08
:1043A00035468580B1F90610B2F90620914200DB4E
:1043B0001146C1800120AB4201DC8C4200DD0020AF
:1043C00070BDF8B50D460446B0F90000B1F9001013
:1043D0001646884247DBB4F90210B5F90220914233
:1043E00041DBB4F90410B5F9042091423BDCB4F987
:1043F0000610B5F90620914235DC96B3ADF8000001
:104400006088ADF8020032466946284600F099F807
:10441000002827D0A088ADF800006088ADF8020021
:1044200032466946284600F08CF800281AD02088C9
:10443000ADF80000E088ADF8020032466946284633
:1044400000F07FF800280DD0A088ADF80000E088CB
:10445000ADF8020032466946284600F072F800289E
:1044600000D00120F8BD0020F8BDB0F90020B1F95E
:1044700004309A4213DCB0F90420B1F900309A42BA
:104480000DDBB0F90220B1F906309A4207DCB0F931
:104490000600B1F90210884201DB012070470020BC
:1044A0007047F8B50D460446B0F90400B1F90010A4
:1044B0001646884243DBB4F90600B5F9021088427B
:1044C0003DDBB4F90000B5F90410884237DCB4F9DB
:1044D0000210B5F90620914231DC76B3ADF8000048
:1044E0006088ADF8020032466946284600F029F897
:1044F00018BBA088ADF800006088ADF80200324615
:104500006946284600F01DF8B8B92088ADF80000CB
:10451000E088ADF8020032466946284600F011F8FE
:1045200058B9A088ADF80000E088ADF80200324626
:104530006946284600F005F808B10020F8BD0120C2
:10454000F8BD2DE9FC4105460F46B1F90000B5F96B
:104550000010144688423BDBB5F90410884237DC72
:10456000B7F90200B5F90210884231DBB5F906103F
:1045700088422DDC002C76DD28460FF0B6FB00EBE0
:10458000D070461028460FF054FB00EBD07040105E
:10459000864200DA3046844200DD04462888ADF8C1
:1045A0000000288800222044ADF804006888ADF897
:1045B0000200688839462044ADF806006846FFF7D7
:1045C000C0FF40B1BDF804002044ADF804003FE056
:1045D0000020BDE8FC81E8880022001BADF8020045
:1045E000E888ADF8060039466846FFF7AAFF28B10B
:1045F000BDF804002044ADF8040011E0A8880022B2
:10460000001BADF80000A888ADF8040039466846E4
:10461000FFF797FF50B1BDF80000001BADF8000098
:10462000BDF80200001BADF8020016E06888ADF886
:104630000200688800222044ADF80600394668462A
:10464000FFF77FFF70B1BDF80000001BADF8000060
:10465000BDF806002044ADF80600394668461CF057
:104660007BFBB6E7FFE70120B3E710B5B1F90030F7
:10467000B2F90040A34200DB23460380B1F90230C7
:10468000B2F90240A34200DB23464380B1F9043073
:10469000B2F90440A34200DC23468380B1F906103E
:1046A000B2F90620914200DC1146C18010BD000025
:1046B0002DE9FC4104461EF01DFE00267D4D0746F7
:1046C00000960CB1E06801E011F0DAFC6860006966
:1046D0001CF040FA6868406908B11CF03BFA686851
:1046E000C0691CF037FA6868006A1CF033FA686821
:1046F000016991B11CF0E2FB21F02EFD21F050FA8E
:104700006868B0F85011E1B30068017CC9071ED099
:10471000C0684068D8B1002414E0A0F85061BDE83A
:10472000FC81011991F8301151B900F5AC7000F01D
:10473000E2FC696801EBC4010A6B0260496B4160ED
:10474000641CA4B26868B0F85011A142E9D8686846
:104750004FF48071303017F0AEFE6868202100F50C
:10476000987017F0A8FE6868A0F8506138461EF0EF
:10477000BBFD009068680068436A13B12A6800991D
:10478000984717F019FD00F0CDF800F0A1F84A4F56
:104790007C69ECBB11F074FC11F0A0FC16F0F4FB8A
:1047A000044600227F211CF0EDF80022114610463D
:1047B00010F08AFF0190BDF80410002220461CF082
:1047C000D0F8FF221146104610F07EFF0190BDF890
:1047D0000410002220461CF02BF900220321204661
:1047E0001CF01CF90022032120461CF008F90022CD
:1047F000032120461CF008F90022032120461CF06A
:1048000008F90022032120461CF00DF92BA100E03D
:1048100009E0204617F00AFA00231A46062120462E
:1048200018F02FFA7C6138681EF05EFDB0F5967FB7
:104830000DD2286841F2883188427FF670AF7868DF
:10484000009908447860B868401CB86067E71EF0BB
:1048500051FD38606868406828B100684FF47A718B
:10486000B1FBF0F000E02120796809B901217960FD
:10487000B968E1B14FF47A7251437A68B1FBF2F54D
:104880007E60BE60854200D905463869284438619B
:10489000F868401CF8601EF0C3FDC0F1640302B06C
:1048A0002A462046BDE8F04105A117F0F6B90546B5
:1048B000E6E7000040010020985C00203F00000077
:1048C0002575204650530A2575252520435055004F
:1048D00070B5094E0024C4EBC40556F8250008B194
:1048E00017F0DEFC06EB85001C2117F0E4FD641CCC
:1048F000E4B2042CEFD370BD085F0020084949687A
:104900000AE04A68824202D00A68824203D10A7EE3
:1049100042F001020A7649690029F2D1704700008D
:1049200014010020704700000421014800F08CBBF6
:10493000205E00202021014800F086BB385E002068
:104940002DE9FF410446DDE90A571E004FF0000043
:1049500002D1B5F5807F2BD0039001900290ADF885
:104960000C100090ADF80410ADF80A20ADF80E2040
:104970003B462A46314668461CF050F93B462A46DB
:10498000314601A81CF04AF93B462A46314602A8A6
:104990001CF044F93B462A46314603A81CF03EF978
:1049A000BDF90030BDF90420934209DA1D4608E044
:1049B0002080491E6080A180521EE280BDE8FF81F8
:1049C0001546BDF90800BDF90C10884201DA06460B
:1049D00000E00E46B54205DA934201DA184604E0DB
:1049E000104602E0884200DB0846801E2080BDF9A8
:1049F0000030BDF90400834201DD1D4600E005469C
:104A0000BDF90820BDF90C108A4201DD164600E010
:104A10000E46B54203DD834206DD184604E08A42B5
:104A200001DD104600E00846801CA080BDF9023080
:104A3000BDF90620934201DA1D4600E01546BDF996
:104A40000A10BDF90E00814201DA0E4600E006466A
:104A5000B54205DA934201DA184604E0104602E056
:104A6000814200DA0846801E6080BDF90230BDF93F
:104A70000620934201DD1D4600E01546BDF90A10EF
:104A8000BDF90E00814201DD0E4600E00646B5424A
:104A900005DD934201DD184604E0104602E0814244
:104AA00000DD0846801CE08088E700002DE9F04129
:104AB00015460E460746114C1EF01CFC80462B4640
:104AC00032463946204615F097FC20B10020A062FE
:104AD000E06950B110E02C21204617F0ECFC4FF0BB
:104AE0000040A0620020BDE8F08140461EF0FCFBC3
:104AF000E06108B90120E0612046F4E75C5E002037
:104B000010B51421074800F09FFA15F03BFC40B1A6
:104B10000549016005494160054981600549C16059
:104B200010BDFEE7445E0020659D0108D9A0010884
:104B3000A5A20108319D010870B50D46044610215B
:104B4000284617F0B8FC20680078012804D0022815
:104B500007D0042807D008E0A08A2880E08A68806F
:104B600003E0E06800E00A20686020684268002AEC
:104B700003D02946BDE87040104770BD2DE9FE43C3
:104B80000446808A10B9E08A002874D0D4F82C80BA
:104B90005FEA080010D120460AF0F2FD5FEA000843
:104BA00069D020460DF05EF900220921404614F03C
:104BB00019FB607880075ED44FF4807900274D465A
:104BC0004646002130461AF0D0F8384407B200219A
:104BD00030461AF0E8F8C11700EB1160001210FB24
:104BE00005F005B2304619F0BFF80600E9D10FB95B
:104BF0004D450CD0784201B24FF4803090FBF5F077
:104C000002B26B4604F1140000961CF007F8ADF8F0
:104C10000860ADF8046094F8400000F00F0003282D
:104C2000404616D019F0F2F90546404619F0A8F8AA
:104C300003460C200090B4F916102A4640460AF0AC
:104C400075F9ADF80400404619F0ECF8C10713D02F
:104C500018E019F06FF90546404619F00BF90246C5
:104C600003200090B4F914102B4640460AF05EF978
:104C7000ADF80800E7E736E0BDF90810002901DDCE
:104C8000ADF80860810705D4BDF90810002901DAE4
:104C9000ADF80860410705D4BDF90410002901DD15
:104CA000ADF80460000705D4BDF90400002801DA5E
:104CB000ADF8046001AA02A9204621F081FDBDF9EA
:104CC0000420BDF90810404600F08AFA6078800799
:104CD00009D4208BBDF8081008442083608BBDF8F0
:104CE000041008446083BDE8FE832DE9FC5F0446A0
:104CF000C06A5FEA000B71D094F8400000076DD0E5
:104D000015F00CFE019000684021457E58461AF0CF
:104D100073F94FF0000818B9A4F81E80A4F81C809D
:104D2000584619F065F98246584619F068F9064662
:104D300094F840004FF0640900F00F000C2802D0F6
:104D400003284CD09AE0A4F81C8056B1B4F91E5048
:104D5000002715F0E3FD00684946407EC0F164007D
:104D600022E0E08BC5F1640110FB01F191FBF9F049
:104D7000E083584619F004F80546584619F046F9FC
:104D800002460C200090B4F91E102B4658460AF03B
:104D9000CDF8E083024600231EE07A1917B210FB1B
:104DA00005F292FBF1F215B2002DF6D1ADF80070CC
:104DB000A4F81E806A460021204621F001FD41F63C
:104DC000FF72BDF90030514258460AF06FFEBDF83F
:104DD00000100123084402B200214CE09AE0A4F83C
:104DE0001E80BAF1000F0AD0B4F91C50002715F04C
:104DF00095FD00684946407EC0F1640022E0A08B2A
:104E0000C5F1640110FB01F191FBF9F0A083584654
:104E100019F030F80546584619F08CF8034603207F
:104E20000090B4F91C102A4658460AF07FF8A08377
:104E3000014600231EE07A1917B210FB05F292FB1F
:104E4000F1F215B2002DF6D1ADF80070A4F81C8077
:104E500000226946204621F0B3FC41F6FF72BDF9FD
:104E60000030514258460AF09FFDBDF80010012362
:104E7000084401B2002258461BF0F4F9A08B002828
:104E800048D1E08B002845D1C6B9584619F0BEF884
:104E90000546584618F074FF002D06DC00280DDD8D
:104EA000002D02DA01232A4604E0002806DA012355
:104EB000404202B2002158461BF0D4F9BAF1000F6B
:104EC00019D1584618F0D6FF0546584619F032F861
:104ED000002D07DC00280EDD002D03DA012300225F
:104EE000294605E0002806DA01230022404201B2EB
:104EF00058461BF0B7F90A215846019A14F072F986
:104F00006078800706D414F8400F20F00F0020705E
:104F100044F8148CBDE8FC9F7FB50D46040003D116
:104F200011F0AEF804002CD011F01EF9002828D0A2
:104F300094F82800400724D4002605B3ADF800609B
:104F4000ADF80260204611F0B3F8401EADF8040041
:104F5000204611F0F3F8401EADF806006A462946D7
:104F600002A8FFF706FA00280BD02068017C890709
:104F700008D5DDE90001C4E90C01012029E0A4F80D
:104F800050617FBD82690AB102A9904700250AE0FD
:104F900004EBC501002202A83031FFF712FA002805
:104FA000EFD16D1CADB2B4F85001A842F0D880B278
:104FB000202804D204EBC00002A9303004E0A4F899
:104FC000506104F1300069460EF0AFFDB4F85001B5
:104FD000401CA4F8500160680028D2D01EF0CEFA20
:104FE0007FBD70B5054600F012F804460CE021467E
:104FF000284600F01EF806462146284600F0A2F892
:10500000204617F04DF93446002CF0D170BD002831
:1050100000D04068704700B503460022FFF7F7FF55
:1050200003E01846521C00F004F80100F9D11046C4
:1050300000BD0068091D405870470068405870471F
:10504000002800D08068704700224260C91C21F00F
:10505000030182600160704770B504460068083043
:1050600017F092F8050013D00146002220461FF0E9
:10507000F4FA2946204662681FF0E6FA616819B121
:105080002A4620461FF0E9FA6560A06800B9A560CD
:10509000284670BD2DE9F0410D4606000AD04DB1FD
:1050A000FFF7B5FFA84208D13046FFF7D5FF041E31
:1050B00001D01EE00020BDE8F0813068083017F014
:1050C00063F8041EF7D03068224647593046394607
:1050D0001FF0BAFA3A46214630461FF0BEFA224681
:1050E000294630461FF0B9FA2A46214630461FF0BD
:1050F000ABFA2046DFE770B504460068083017F0C9
:1051000043F8050013D00146002220461FF09CFA08
:1051100029462046A2681FF0A0FAA16819B12A46C4
:1051200020461FF091FAA560606800B965602846C6
:1051300070BD28B1416809B9806808B10020704786
:105140000120704770B504000DD0FFF760FF00220A
:105150008842204608D1FFF76CFF606010B1002242
:1051600001461EE0A26070BDFFF76AFF884220681A
:1051700008440AD10168A16029B12046BDE8704009
:1051800000221FF061BA626070BD05682046FFF71B
:1051900050FF06460246294620461FF055FA2A4689
:1051A00031462046BDE870401FF057BA10B504469E
:1051B000006882680AB1214690472068006800288C
:1051C00001D02060F5E710BD8068002801D0B0F95B
:1051D000160070478068002801D0807E80097047E3
:1051E00070B5154606460C4651EA05001AD0304601
:1051F00017F0C6FEB06801232A46018A21440182C5
:10520000B068418A29444182214630461AF08AFA20
:1052100000220B21304613F0E5FF012803D1304670
:105220001AF0D9F9012070BD77B581B00E4605009E
:1052300017D0622219F0CAFC040012D0206880B195
:1052400028463146632219F0C1FC10F0FF0208D055
:1052500023682046039998470090BDF80000ADF8F8
:105260000C00039804B070BD2DE9F047054692B0DC
:10527000408C1A9C40F00800688490462A84994625
:105280008A462289284619F0A1FC0646A5F82090F6
:1052900022895146284619F099FC0746688CBE427F
:1052A00020F00800688403D13104B1EB074F68D0C7
:1052B000A5F8208022895146284619F087FC064629
:1052C0008046A5F82090514628460BF02DFE2189F6
:1052D000006832461CF056FF20890B2823D147F680
:1052E000FF794E4501D04F451DD1284619F03EFEAD
:1052F00000EBD0704610284618F0FBFC00EBD07095
:105300004010C84506D1711C431C994200DA00E0E8
:10531000194688464F4506D1711C421C914201DA5C
:105320000F4600E017461948FFF796FE06002BD0FF
:105330003560C6E903872089B0806846C6F808A0B2
:105340000DF062FE1248FF21CDE900601148029085
:105350001148039000200890CDE9090120880B90A6
:1053600060889DF8421040420C90E0680790002051
:1053700060F300018DF842102069069068460DF038
:10538000BBFE12B0BDE8F087FEE70000505E0020D3
:1053900025930208159502086D940208142101480E
:1053A000FFF752BE505E00202DE9F84F00249046D2
:1053B0008946064625464FF0040AE3E0F1680AEB09
:1053C000C500085882017AD480B230EA090210D0B0
:1053D000002230EA08000ED0002082426FD051F83F
:1053E00035706A46102138461CF030FC002871D117
:1053F00003E00122EDE70120EFE76A46112138467C
:105400001CF024FC002865D16A46122138461CF0A5
:105410001DFC00285ED16A46132138461CF016FC9C
:10542000002857D16A46152138461CF00FFC002889
:1054300050D16A46142138461CF008FCF0BB6A467D
:105440000A2138461CF002FCC0BB6A466B21384674
:105450001CF0FCFB90BB6A466C2138461CF0F6FB46
:1054600060BB6A46012138461CF0F0FB30BB6A463F
:10547000042138461CF0EAFB00BB6A46022138468C
:105480001CF0E4FBD0B96A46032138461CF0DEFB71
:10549000A0B96A46052138461CF0D8FB70B96A46A7
:1054A000062138461CF0D2FB40B96A463221384604
:1054B0001CF0CCFB10B96A466E2101E00AE060E006
:1054C00038461CF0C3FB28B96A466D2138461CF0EB
:1054D000BDFB10B10320BDE8F88F6A46692138464C
:1054E0001CF0B4FBF0BB6A466A2138461CF0AEFBE8
:1054F000C0BB6A466E2138461CF0A8FB90BB6A46CA
:105500006D2138461CF0A2FB60BB6A463721384645
:105510001CF09CFB30BB6A46382138461CF096FBD9
:1055200000BB6A46352138461CF090FBD0B96A466C
:10553000402138461CF08AFBA0B96A46452138460E
:105540001CF084FB70B96A46412138461CF07EFB92
:1055500040B96A46422138461CF078FB10B96A46C9
:10556000432100E009E038461CF070FB28B96A4688
:10557000492138461CF06AFB08B1022401E004B955
:1055800001246D1C708CC0F30510A8423FF616AFC5
:105590002046A0E701484068704700004001002015
:1055A0000448002141600161C16081600160416186
:1055B00070470000985C0020C0F30410072800D951
:1055C00007207047A0F57F41FF3905D0002804D09F
:1055D000712803D208490AE01F2070470749713833
:1055E00080B2096829B1064A5268904201D2085C2B
:1055F0007047002070470000C8F40208AC02002089
:10560000C002002010B518210348FFF71DFD034913
:105610000120087010BD0000FC5D0020C8020020C1
:105620002DE9F04190460D46040016D0FAF797FE9A
:1056300029460B4D06462046AA6890470746AA68A9
:10564000E0194146904701463846721A03E0431874
:10565000E35C2354401C8242F9D2BDE8F081000093
:10566000DC0200202DE9F041094C90460E466268AC
:105670001D46074619469047306020B12868626889
:10568000384400219047C8F80000BDE8F0810000D0
:10569000DC0200202DE9F04F87B08A46DDE9105882
:1056A0001F4693460446002105B129805CB120784D
:1056B000002809D0BAF1000F05D0002618F0060F17
:1056C00015D0002004E0002007B0BDE8F08F401C9A
:1056D000215C0A2904D00D2902D00029F7D100E06D
:1056E000401C002DF0D04FF0FF312980ECE75FEA3D
:1056F000887001D541F6FF77894608468DF810106D
:10570000059125E00598CDF8189058B3002104AB19
:10571000CDE902310DF1180CCDE9008C20443B4657
:105720005A4651461EF074F806997A1A314417B257
:105730000EB288B105990844059021780A290BD04A
:105740000D2909D0205C0A280ED00D280CD0059810
:10575000205C08B1002FD5DC059848B105B12E803A
:105760000598B1E70121D2E70598401C0590F3E7C1
:10577000064A05A92046526890470146002DEFD001
:105780000022504613F041FE06B2E8E7DC0200209A
:105790002DE9F0411746884606001ED0002F1CD088
:1057A000FAF7DDFD04463846FAF7D9FD050014D0B6
:1057B0000B4A2C444146926830469047411903E019
:1057C000621BB25C3255641EA142F9D930442A46AC
:1057D0003946BDE8F04116F032BEBDE8F081000068
:1057E000DC02002000230278232902D0012A0DD0F8
:1057F0000FE02AB10021012A04D0022A04D008E0D7
:10580000012101E0017004E0017001E0202902D0D3
:105810000123184670470221F6E72DE9F0410B46B7
:105820000F4680460246002108461EF039FA05461A
:105830000026401C16F0A8FC040008D066553B4624
:105840004246691C1EF02CFA2046BDE8F081FEE7B6
:105850002DE9F047984614460D468246DDF8209023
:1058600013E0660806FB0857394650464A469047FB
:10587000002808DD44F30000C0EB540407EB0805E2
:10588000A4F1010401E005DA3446002CE9D12046F8
:10589000BDE8F0873846FBE72DE9FC5F0CAD9E467E
:1058A00092468B4695E81201DDE91132DDE90F7C65
:1058B00096074FF0300519D453B1D60708D002F03F
:1058C0000C0656EA080603D05B1E01E00D55641C69
:1058D000644504D2202CF9D301E00D55641C5FEA25
:1058E000C27903D09C4201D2202CF6D3D60624D50F
:1058F00056050AD44CB1644501D09C4205D1641EC2
:1059000003D0102F03D1641E04E0102F02D0022F09
:105910000AD00EE0960603D4202C1ED2782606E08C
:10592000202C1AD2582602E0202C16D262260E55C0
:10593000641C202C11D20D55641C202C0DD2B8F102
:10594000000F01D02D2506E0550701D52B2502E0DB
:10595000150702D520250D55641CCDE900EB064640
:1059600055468B4698469146900713D1274606E048
:105970002A46DDE900316D1C2020B0477F1C4745D9
:10598000F6D307E02A466D1C641EDDE900311BF8E2
:105990000400B047002CF5D15FEA897006D409E015
:1059A0002A46DDE900316D1C2020B047A5EB0A0135
:1059B0004145F5D32846BDE8FC9F2DE9F04F8FB057
:1059C00099468B46DDE91818DDE91C63DDE91A47C5
:1059D00086469246002009B923F010035A0507AD08
:1059E00000D5C9B1B1FBF4F204FB1212D2B20A2AFB
:1059F00001D2303209E05FEA836C02D54FF0410CEE
:105A000001E04FF0610C62440A3AB1FBF4F12A5410
:105A1000401C09B12028E5D3CDF80880CDE9056305
:105A2000CDE90050CDE903474B46524659467046F2
:105A3000FFF732FF0FB0BDE8F08F2DE9FF4F8FB0B9
:105A40001CACDDE9239594E8030820AC94E8C0047D
:105A5000002450EA010201D125F010056A050DF17C
:105A60001C0802D550EA010217D032463B46FAF72D
:105A700007FCD2B20A2A01D2303206E0AB0601D5C9
:105A8000412300E061231A440A3A08F80420641C08
:105A900050EA010201D0202CE7D3CDE90084CDF8F3
:105AA00008B0CDE90595CDE9036A0FAF97E80F007F
:105AB000FFF7F2FE13B0BDE8F08F9A4200D288548F
:105AC000704770472DE9FF4F95B09B4689460646C3
:105AD00000250FE2252877D100242746F84A012126
